{
  "_format": "hh-sol-artifact-1",
  "contractName": "Character",
  "sourceName": "contracts/character.sol",
  "abi": [
    {
      "inputs": [],
      "stateMutability": "nonpayable",
      "type": "constructor"
    },
    {
      "anonymous": false,
      "inputs": [
        {
          "indexed": true,
          "internalType": "address",
          "name": "owner",
          "type": "address"
        },
        {
          "indexed": true,
          "internalType": "address",
          "name": "approved",
          "type": "address"
        },
        {
          "indexed": true,
          "internalType": "uint256",
          "name": "tokenId",
          "type": "uint256"
        }
      ],
      "name": "Approval",
      "type": "event"
    },
    {
      "anonymous": false,
      "inputs": [
        {
          "indexed": true,
          "internalType": "address",
          "name": "owner",
          "type": "address"
        },
        {
          "indexed": true,
          "internalType": "address",
          "name": "operator",
          "type": "address"
        },
        {
          "indexed": false,
          "internalType": "bool",
          "name": "approved",
          "type": "bool"
        }
      ],
      "name": "ApprovalForAll",
      "type": "event"
    },
    {
      "anonymous": false,
      "inputs": [
        {
          "indexed": true,
          "internalType": "address",
          "name": "previousOwner",
          "type": "address"
        },
        {
          "indexed": true,
          "internalType": "address",
          "name": "newOwner",
          "type": "address"
        }
      ],
      "name": "OwnershipTransferred",
      "type": "event"
    },
    {
      "anonymous": false,
      "inputs": [
        {
          "indexed": true,
          "internalType": "address",
          "name": "from",
          "type": "address"
        },
        {
          "indexed": true,
          "internalType": "address",
          "name": "to",
          "type": "address"
        },
        {
          "indexed": true,
          "internalType": "uint256",
          "name": "tokenId",
          "type": "uint256"
        }
      ],
      "name": "Transfer",
      "type": "event"
    },
    {
      "inputs": [],
      "name": "_mintActive",
      "outputs": [
        {
          "internalType": "bool",
          "name": "",
          "type": "bool"
        }
      ],
      "stateMutability": "view",
      "type": "function"
    },
    {
      "inputs": [
        {
          "internalType": "address",
          "name": "to",
          "type": "address"
        },
        {
          "internalType": "uint256",
          "name": "tokenId",
          "type": "uint256"
        }
      ],
      "name": "approve",
      "outputs": [],
      "stateMutability": "nonpayable",
      "type": "function"
    },
    {
      "inputs": [
        {
          "internalType": "address",
          "name": "owner",
          "type": "address"
        }
      ],
      "name": "balanceOf",
      "outputs": [
        {
          "internalType": "uint256",
          "name": "",
          "type": "uint256"
        }
      ],
      "stateMutability": "view",
      "type": "function"
    },
    {
      "inputs": [
        {
          "internalType": "uint256",
          "name": "tokenId",
          "type": "uint256"
        }
      ],
      "name": "getApproved",
      "outputs": [
        {
          "internalType": "address",
          "name": "",
          "type": "address"
        }
      ],
      "stateMutability": "view",
      "type": "function"
    },
    {
      "inputs": [
        {
          "internalType": "uint256",
          "name": "tokenId",
          "type": "uint256"
        }
      ],
      "name": "getElement",
      "outputs": [
        {
          "internalType": "string",
          "name": "",
          "type": "string"
        }
      ],
      "stateMutability": "view",
      "type": "function"
    },
    {
      "inputs": [],
      "name": "getPrice",
      "outputs": [
        {
          "internalType": "uint256",
          "name": "",
          "type": "uint256"
        }
      ],
      "stateMutability": "view",
      "type": "function"
    },
    {
      "inputs": [
        {
          "internalType": "uint256",
          "name": "tokenId",
          "type": "uint256"
        }
      ],
      "name": "getRace",
      "outputs": [
        {
          "internalType": "string",
          "name": "",
          "type": "string"
        }
      ],
      "stateMutability": "view",
      "type": "function"
    },
    {
      "inputs": [
        {
          "internalType": "uint256",
          "name": "tokenId",
          "type": "uint256"
        }
      ],
      "name": "getRole",
      "outputs": [
        {
          "internalType": "string",
          "name": "",
          "type": "string"
        }
      ],
      "stateMutability": "view",
      "type": "function"
    },
    {
      "inputs": [
        {
          "internalType": "address",
          "name": "owner",
          "type": "address"
        },
        {
          "internalType": "address",
          "name": "operator",
          "type": "address"
        }
      ],
      "name": "isApprovedForAll",
      "outputs": [
        {
          "internalType": "bool",
          "name": "",
          "type": "bool"
        }
      ],
      "stateMutability": "view",
      "type": "function"
    },
    {
      "inputs": [
        {
          "internalType": "uint256",
          "name": "numToMint",
          "type": "uint256"
        }
      ],
      "name": "mintPublic",
      "outputs": [],
      "stateMutability": "payable",
      "type": "function"
    },
    {
      "inputs": [],
      "name": "name",
      "outputs": [
        {
          "internalType": "string",
          "name": "",
          "type": "string"
        }
      ],
      "stateMutability": "view",
      "type": "function"
    },
    {
      "inputs": [],
      "name": "owner",
      "outputs": [
        {
          "internalType": "address",
          "name": "",
          "type": "address"
        }
      ],
      "stateMutability": "view",
      "type": "function"
    },
    {
      "inputs": [
        {
          "internalType": "uint256",
          "name": "tokenId",
          "type": "uint256"
        }
      ],
      "name": "ownerOf",
      "outputs": [
        {
          "internalType": "address",
          "name": "",
          "type": "address"
        }
      ],
      "stateMutability": "view",
      "type": "function"
    },
    {
      "inputs": [],
      "name": "renounceOwnership",
      "outputs": [],
      "stateMutability": "nonpayable",
      "type": "function"
    },
    {
      "inputs": [
        {
          "internalType": "address",
          "name": "from",
          "type": "address"
        },
        {
          "internalType": "address",
          "name": "to",
          "type": "address"
        },
        {
          "internalType": "uint256",
          "name": "tokenId",
          "type": "uint256"
        }
      ],
      "name": "safeTransferFrom",
      "outputs": [],
      "stateMutability": "nonpayable",
      "type": "function"
    },
    {
      "inputs": [
        {
          "internalType": "address",
          "name": "from",
          "type": "address"
        },
        {
          "internalType": "address",
          "name": "to",
          "type": "address"
        },
        {
          "internalType": "uint256",
          "name": "tokenId",
          "type": "uint256"
        },
        {
          "internalType": "bytes",
          "name": "_data",
          "type": "bytes"
        }
      ],
      "name": "safeTransferFrom",
      "outputs": [],
      "stateMutability": "nonpayable",
      "type": "function"
    },
    {
      "inputs": [
        {
          "internalType": "address",
          "name": "operator",
          "type": "address"
        },
        {
          "internalType": "bool",
          "name": "approved",
          "type": "bool"
        }
      ],
      "name": "setApprovalForAll",
      "outputs": [],
      "stateMutability": "nonpayable",
      "type": "function"
    },
    {
      "inputs": [
        {
          "internalType": "bool",
          "name": "newMintStatus",
          "type": "bool"
        }
      ],
      "name": "setMintStatus",
      "outputs": [],
      "stateMutability": "nonpayable",
      "type": "function"
    },
    {
      "inputs": [
        {
          "internalType": "uint256",
          "name": "_newPrice",
          "type": "uint256"
        }
      ],
      "name": "setPrice",
      "outputs": [],
      "stateMutability": "nonpayable",
      "type": "function"
    },
    {
      "inputs": [
        {
          "internalType": "bytes4",
          "name": "interfaceId",
          "type": "bytes4"
        }
      ],
      "name": "supportsInterface",
      "outputs": [
        {
          "internalType": "bool",
          "name": "",
          "type": "bool"
        }
      ],
      "stateMutability": "view",
      "type": "function"
    },
    {
      "inputs": [],
      "name": "symbol",
      "outputs": [
        {
          "internalType": "string",
          "name": "",
          "type": "string"
        }
      ],
      "stateMutability": "view",
      "type": "function"
    },
    {
      "inputs": [
        {
          "internalType": "uint256",
          "name": "index",
          "type": "uint256"
        }
      ],
      "name": "tokenByIndex",
      "outputs": [
        {
          "internalType": "uint256",
          "name": "",
          "type": "uint256"
        }
      ],
      "stateMutability": "view",
      "type": "function"
    },
    {
      "inputs": [
        {
          "internalType": "address",
          "name": "owner",
          "type": "address"
        },
        {
          "internalType": "uint256",
          "name": "index",
          "type": "uint256"
        }
      ],
      "name": "tokenOfOwnerByIndex",
      "outputs": [
        {
          "internalType": "uint256",
          "name": "",
          "type": "uint256"
        }
      ],
      "stateMutability": "view",
      "type": "function"
    },
    {
      "inputs": [
        {
          "internalType": "uint256",
          "name": "tokenId",
          "type": "uint256"
        }
      ],
      "name": "tokenURI",
      "outputs": [
        {
          "internalType": "string",
          "name": "",
          "type": "string"
        }
      ],
      "stateMutability": "view",
      "type": "function"
    },
    {
      "inputs": [],
      "name": "totalSupply",
      "outputs": [
        {
          "internalType": "uint256",
          "name": "",
          "type": "uint256"
        }
      ],
      "stateMutability": "view",
      "type": "function"
    },
    {
      "inputs": [
        {
          "internalType": "address",
          "name": "from",
          "type": "address"
        },
        {
          "internalType": "address",
          "name": "to",
          "type": "address"
        },
        {
          "internalType": "uint256",
          "name": "tokenId",
          "type": "uint256"
        }
      ],
      "name": "transferFrom",
      "outputs": [],
      "stateMutability": "nonpayable",
      "type": "function"
    },
    {
      "inputs": [
        {
          "internalType": "address",
          "name": "newOwner",
          "type": "address"
        }
      ],
      "name": "transferOwnership",
      "outputs": [],
      "stateMutability": "nonpayable",
      "type": "function"
    },
    {
      "inputs": [],
      "name": "withdraw",
      "outputs": [],
      "stateMutability": "payable",
      "type": "function"
    }
  ],
  "bytecode": "0x60806040526001600b60146101000a81548160ff021916908315150217905550668e1bc9bf040000600c556000600d5573a27999aee6d546004fa37cfdf372a922ab1c7eff600e60006101000a81548173ffffffffffffffffffffffffffffffffffffffff021916908373ffffffffffffffffffffffffffffffffffffffff16021790555073750ef1d7a0b4ab1c97b7a623d7917cceb5ea779c600f60006101000a81548173ffffffffffffffffffffffffffffffffffffffff021916908373ffffffffffffffffffffffffffffffffffffffff16021790555060405180608001604052806040518060400160405280600581526020017f466169727900000000000000000000000000000000000000000000000000000081525081526020016040518060400160405280600581526020017f446a696e6e00000000000000000000000000000000000000000000000000000081525081526020016040518060400160405280600581526020017f44656d6f6e00000000000000000000000000000000000000000000000000000081525081526020016040518060400160405280600581526020017f416e67656c0000000000000000000000000000000000000000000000000000008152508152506010906004620001e0929190620015f0565b506040518060c001604052806040518060400160405280600881526020017f4461726b20456c6600000000000000000000000000000000000000000000000081525081526020016040518060400160405280600781526020017f43656e746175720000000000000000000000000000000000000000000000000081525081526020016040518060400160405280600581526020017f4769616e7400000000000000000000000000000000000000000000000000000081525081526020016040518060400160405280600881526020017f48616c666c696e6700000000000000000000000000000000000000000000000081525081526020016040518060400160405280600781526020017f56616d706972650000000000000000000000000000000000000000000000000081525081526020016040518060400160405280600581526020017f416c69656e00000000000000000000000000000000000000000000000000000081525081525060119060066200035e92919062001657565b506040518060a001604052806040518060400160405280600381526020017f456c66000000000000000000000000000000000000000000000000000000000081525081526020016040518060400160405280600581526020017f447761726600000000000000000000000000000000000000000000000000000081525081526020016040518060400160405280600581526020017f476e6f6d6500000000000000000000000000000000000000000000000000000081525081526020016040518060400160405280600681526020017f476f626c696e000000000000000000000000000000000000000000000000000081525081526020016040518060400160405280600581526020017f526f626f740000000000000000000000000000000000000000000000000000008152508152506012906005620004a1929190620016be565b506040518060c001604052806040518060400160405280600581526020017f48756d616e00000000000000000000000000000000000000000000000000000081525081526020016040518060400160405280600381526020017f4f7263000000000000000000000000000000000000000000000000000000000081525081526020016040518060400160405280600681526020017f556e64656164000000000000000000000000000000000000000000000000000081525081526020016040518060400160405280600881526020017f41706520466f6c6b00000000000000000000000000000000000000000000000081525081526020016040518060400160405280600881526020017f43617420466f6c6b00000000000000000000000000000000000000000000000081525081526020016040518060400160405280600b81526020017f4c697a61726420466f6c6b00000000000000000000000000000000000000000081525081525060139060066200061f92919062001657565b50604051806105e001604052806040518060400160405280600681526020017f417274697374000000000000000000000000000000000000000000000000000081525081526020016040518060400160405280600481526020017f426172640000000000000000000000000000000000000000000000000000000081525081526020016040518060400160405280600681526020017f44616e636572000000000000000000000000000000000000000000000000000081525081526020016040518060400160405280600a81526020017f496e666c75656e6365720000000000000000000000000000000000000000000081525081526020016040518060400160405280600481526020017f436865660000000000000000000000000000000000000000000000000000000081525081526020016040518060400160405280600881526020017f5363756c70746f7200000000000000000000000000000000000000000000000081525081526020016040518060400160405280600881526020017f4578706c6f72657200000000000000000000000000000000000000000000000081525081526020016040518060400160405280600581526020017f53636f757400000000000000000000000000000000000000000000000000000081525081526020016040518060400160405280600681526020017f506972617465000000000000000000000000000000000000000000000000000081525081526020016040518060400160405280600981526020017f417374726f6e617574000000000000000000000000000000000000000000000081525081526020016040518060400160405280600581526020017f50696c6f7400000000000000000000000000000000000000000000000000000081525081526020016040518060400160405280600481526020017f4d6167650000000000000000000000000000000000000000000000000000000081525081526020016040518060400160405280600681526020017f4865616c6572000000000000000000000000000000000000000000000000000081525081526020016040518060400160405280600981526020017f456e6368616e746572000000000000000000000000000000000000000000000081525081526020016040518060400160405280600b81526020017f4e6563726f6d616e63657200000000000000000000000000000000000000000081525081526020016040518060400160405280600881526020017f53756d6d6f6e657200000000000000000000000000000000000000000000000081525081526020016040518060400160405280600e81526020017f4d61727469616c2041727469737400000000000000000000000000000000000081525081526020016040518060400160405280600481526020017f4d6f6e6b0000000000000000000000000000000000000000000000000000000081525081526020016040518060400160405280600481526020017f596f67690000000000000000000000000000000000000000000000000000000081525081526020016040518060400160405280600881526020017f4d65726368616e7400000000000000000000000000000000000000000000000081525081526020016040518060400160405280600881526020017f496e766573746f7200000000000000000000000000000000000000000000000081525081526020016040518060400160405280601281526020017f506174726f6e206f66207468652041727473000000000000000000000000000081525081526020016040518060400160405280600881526020017f54656c657061746800000000000000000000000000000000000000000000000081525081526020016040518060400160405280600b81526020017f54656c656b696e6574696300000000000000000000000000000000000000000081525081526020016040518060400160405280600c81526020017f536861706573686966746572000000000000000000000000000000000000000081525081526020016040518060400160405280600681526020017f52616e676572000000000000000000000000000000000000000000000000000081525081526020016040518060400160405280600c81526020017f4265617374204d6173746572000000000000000000000000000000000000000081525081526020016040518060400160405280600681526020017f48756e746572000000000000000000000000000000000000000000000000000081525081526020016040518060400160405280600981526020017f446574656374697665000000000000000000000000000000000000000000000081525081526020016040518060400160405280600581526020017f526f67756500000000000000000000000000000000000000000000000000000081525081526020016040518060400160405280600581526020017f546869656600000000000000000000000000000000000000000000000000000081525081526020016040518060400160405280600881526020017f417373617373696e00000000000000000000000000000000000000000000000081525081526020016040518060400160405280600581526020017f4e696e6a6100000000000000000000000000000000000000000000000000000081525081526020016040518060400160405280600381526020017f537079000000000000000000000000000000000000000000000000000000000081525081526020016040518060400160405280600481526020017f546563680000000000000000000000000000000000000000000000000000000081525081526020016040518060400160405280600981526020017f416c6368656d697374000000000000000000000000000000000000000000000081525081526020016040518060400160405280600881526020017f456e67696e65657200000000000000000000000000000000000000000000000081525081526020016040518060400160405280600881526020017f496e76656e746f7200000000000000000000000000000000000000000000000081525081526020016040518060400160405280600981526020017f536369656e74697374000000000000000000000000000000000000000000000081525081526020016040518060400160405280600681526020017f4861636b6572000000000000000000000000000000000000000000000000000081525081526020016040518060400160405280600a81526020017f426c61636b736d6974680000000000000000000000000000000000000000000081525081526020016040518060400160405280600781526020017f57617272696f720000000000000000000000000000000000000000000000000081525081526020016040518060400160405280600781526020017f50616c6164696e0000000000000000000000000000000000000000000000000081525081526020016040518060400160405280600681526020017f4b6e69676874000000000000000000000000000000000000000000000000000081525081526020016040518060400160405280600781526020017f53616d757261690000000000000000000000000000000000000000000000000081525081526020016040518060400160405280600c81526020017f44656d6f6e20536c61796572000000000000000000000000000000000000000081525081526020016040518060400160405280600981526020017f4265727365726b65720000000000000000000000000000000000000000000000815250815250601490602f6200111192919062001725565b5060405180608001604052806040518060400160405280600481526020017f466972650000000000000000000000000000000000000000000000000000000081525081526020016040518060400160405280600481526020017f57696e640000000000000000000000000000000000000000000000000000000081525081526020016040518060400160405280600581526020017f456172746800000000000000000000000000000000000000000000000000000081525081526020016040518060400160405280600581526020017f5761746572000000000000000000000000000000000000000000000000000000815250815250601590600462001219929190620015f0565b5060405180606001604052806040518060400160405280600981526020017f4c696768746e696e67000000000000000000000000000000000000000000000081525081526020016040518060400160405280600581526020017f4d6574616c00000000000000000000000000000000000000000000000000000081525081526020016040518060400160405280600681526020017f506f69736f6e00000000000000000000000000000000000000000000000000008152508152506016906003620012e69291906200178c565b5060405180604001604052806040518060400160405280600581526020017f4c6967687400000000000000000000000000000000000000000000000000000081525081526020016040518060400160405280600481526020017f4461726b00000000000000000000000000000000000000000000000000000000815250815250601790600262001378929190620017f3565b5060405180606001604052806040518060400160405280600581526020017f4368616f7300000000000000000000000000000000000000000000000000000081525081526020016040518060400160405280600781526020017f477261766974790000000000000000000000000000000000000000000000000081525081526020016040518060400160405280600481526020017f54696d65000000000000000000000000000000000000000000000000000000008152508152506018906003620014459291906200178c565b503480156200145357600080fd5b506040518060400160405280600981526020017f43686172616374657200000000000000000000000000000000000000000000008152506040518060400160405280600481526020017f43484152000000000000000000000000000000000000000000000000000000008152508160009080519060200190620014d89291906200185a565b508060019080519060200190620014f19291906200185a565b5050506001600a819055506200151c620015106200152260201b60201c565b6200152a60201b60201c565b620019dd565b600033905090565b6000600b60009054906101000a900473ffffffffffffffffffffffffffffffffffffffff16905081600b60006101000a81548173ffffffffffffffffffffffffffffffffffffffff021916908373ffffffffffffffffffffffffffffffffffffffff1602179055508173ffffffffffffffffffffffffffffffffffffffff168173ffffffffffffffffffffffffffffffffffffffff167f8be0079c531659141344cd1fd0a4f28419497f9722a3daafe3b4186f6b6457e060405160405180910390a35050565b82805482825590600052602060002090810192821562001644579160200282015b8281111562001643578251829080519060200190620016329291906200185a565b509160200191906001019062001611565b5b509050620016539190620018eb565b5090565b828054828255906000526020600020908101928215620016ab579160200282015b82811115620016aa578251829080519060200190620016999291906200185a565b509160200191906001019062001678565b5b509050620016ba9190620018eb565b5090565b82805482825590600052602060002090810192821562001712579160200282015b8281111562001711578251829080519060200190620017009291906200185a565b5091602001919060010190620016df565b5b509050620017219190620018eb565b5090565b82805482825590600052602060002090810192821562001779579160200282015b8281111562001778578251829080519060200190620017679291906200185a565b509160200191906001019062001746565b5b509050620017889190620018eb565b5090565b828054828255906000526020600020908101928215620017e0579160200282015b82811115620017df578251829080519060200190620017ce9291906200185a565b5091602001919060010190620017ad565b5b509050620017ef9190620018eb565b5090565b82805482825590600052602060002090810192821562001847579160200282015b8281111562001846578251829080519060200190620018359291906200185a565b509160200191906001019062001814565b5b509050620018569190620018eb565b5090565b828054620018689062001978565b90600052602060002090601f0160209004810192826200188c5760008555620018d8565b82601f10620018a757805160ff1916838001178555620018d8565b82800160010185558215620018d8579182015b82811115620018d7578251825591602001919060010190620018ba565b5b509050620018e7919062001913565b5090565b5b808211156200190f576000818162001905919062001932565b50600101620018ec565b5090565b5b808211156200192e57600081600090555060010162001914565b5090565b508054620019409062001978565b6000825580601f1062001954575062001975565b601f01602090049060005260206000209081019062001974919062001913565b5b50565b600060028204905060018216806200199157607f821691505b60208210811415620019a857620019a7620019ae565b5b50919050565b7f4e487b7100000000000000000000000000000000000000000000000000000000600052602260045260246000fd5b61560680620019ed6000396000f3fe6080604052600436106101b75760003560e01c80636352211e116100ec5780639ef4b9aa1161008a578063c87b56dd11610064578063c87b56dd14610623578063e985e9c514610660578063efd0cbf91461069d578063f2fde38b146106b9576101b7565b80639ef4b9aa146105a6578063a22cb465146105d1578063b88d4fde146105fa576101b7565b80638da5cb5b116100c65780638da5cb5b146104fc57806391b7f5ed1461052757806395d89b411461055057806398d5fdca1461057b576101b7565b80636352211e1461046b57806370a08231146104a8578063715018a6146104e5576101b7565b806323b872dd116101595780633ccfd60b116101335780633ccfd60b146103be57806342842e0e146103c85780634f6ccce7146103f15780635312fdc21461042e576101b7565b806323b872dd1461031b5780632f745c59146103445780633a7d22bc14610381576101b7565b8063095ea7b311610195578063095ea7b3146102615780630d71aba51461028a57806318160ddd146102c75780631f85e3ca146102f2576101b7565b806301ffc9a7146101bc57806306fdde03146101f9578063081812fc14610224575b600080fd5b3480156101c857600080fd5b506101e360048036038101906101de919061383e565b6106e2565b6040516101f0919061417d565b60405180910390f35b34801561020557600080fd5b5061020e61075c565b60405161021b9190614198565b60405180910390f35b34801561023057600080fd5b5061024b60048036038101906102469190613898565b6107ee565b6040516102589190614116565b60405180910390f35b34801561026d57600080fd5b50610288600480360381019061028391906137d1565b610873565b005b34801561029657600080fd5b506102b160048036038101906102ac9190613898565b61098b565b6040516102be9190614198565b60405180910390f35b3480156102d357600080fd5b506102dc610d9b565b6040516102e9919061445a565b60405180910390f35b3480156102fe57600080fd5b5061031960048036038101906103149190613811565b610da8565b005b34801561032757600080fd5b50610342600480360381019061033d91906136bb565b610e41565b005b34801561035057600080fd5b5061036b600480360381019061036691906137d1565b610ea1565b604051610378919061445a565b60405180910390f35b34801561038d57600080fd5b506103a860048036038101906103a39190613898565b610f46565b6040516103b59190614198565b60405180910390f35b6103c661103a565b005b3480156103d457600080fd5b506103ef60048036038101906103ea91906136bb565b6111a8565b005b3480156103fd57600080fd5b5061041860048036038101906104139190613898565b6111c8565b604051610425919061445a565b60405180910390f35b34801561043a57600080fd5b5061045560048036038101906104509190613898565b611239565b6040516104629190614198565b60405180910390f35b34801561047757600080fd5b50610492600480360381019061048d9190613898565b611413565b60405161049f9190614116565b60405180910390f35b3480156104b457600080fd5b506104cf60048036038101906104ca919061364e565b6114c5565b6040516104dc919061445a565b60405180910390f35b3480156104f157600080fd5b506104fa61157d565b005b34801561050857600080fd5b50610511611605565b60405161051e9190614116565b60405180910390f35b34801561053357600080fd5b5061054e60048036038101906105499190613898565b61162f565b005b34801561055c57600080fd5b506105656116b5565b6040516105729190614198565b60405180910390f35b34801561058757600080fd5b50610590611747565b60405161059d919061445a565b60405180910390f35b3480156105b257600080fd5b506105bb611751565b6040516105c8919061417d565b60405180910390f35b3480156105dd57600080fd5b506105f860048036038101906105f39190613791565b611764565b005b34801561060657600080fd5b50610621600480360381019061061c919061370e565b6118e5565b005b34801561062f57600080fd5b5061064a60048036038101906106459190613898565b611947565b6040516106579190614198565b60405180910390f35b34801561066c57600080fd5b506106876004803603810190610682919061367b565b611cf0565b604051610694919061417d565b60405180910390f35b6106b760048036038101906106b29190613898565b611d84565b005b3480156106c557600080fd5b506106e060048036038101906106db919061364e565b611f28565b005b60007f780e9d63000000000000000000000000000000000000000000000000000000007bffffffffffffffffffffffffffffffffffffffffffffffffffffffff1916827bffffffffffffffffffffffffffffffffffffffffffffffffffffffff19161480610755575061075482612020565b5b9050919050565b60606000805461076b906146ee565b80601f0160208091040260200160405190810160405280929190818152602001828054610797906146ee565b80156107e45780601f106107b9576101008083540402835291602001916107e4565b820191906000526020600020905b8154815290600101906020018083116107c757829003601f168201915b5050505050905090565b60006107f982612102565b610838576040517f08c379a000000000000000000000000000000000000000000000000000000000815260040161082f9061431a565b60405180910390fd5b6004600083815260200190815260200160002060009054906101000a900473ffffffffffffffffffffffffffffffffffffffff169050919050565b600061087e82611413565b90508073ffffffffffffffffffffffffffffffffffffffff168373ffffffffffffffffffffffffffffffffffffffff1614156108ef576040517f08c379a00000000000000000000000000000000000000000000000000000000081526004016108e69061437a565b60405180910390fd5b8073ffffffffffffffffffffffffffffffffffffffff1661090e61216e565b73ffffffffffffffffffffffffffffffffffffffff16148061093d575061093c8161093761216e565b611cf0565b5b61097c576040517f08c379a00000000000000000000000000000000000000000000000000000000081526004016109739061429a565b60405180910390fd5b6109868383612176565b505050565b606060006109bf61099b8461222f565b6040516020016109ab91906140b0565b604051602081830303815290604052612390565b90506000612710826109d1919061479a565b9050600061c35090506000806000610dac905083881015610a4b5760646103e789866109fd9190614604565b610a079190614523565b610a119190614579565b9250606461bf688986610a249190614604565b6004610a3091906145aa565b610a3a9190614523565b610a449190614579565b9150610a55565b600a92506101ea91505b808284610a629190614523565b610a6c9190614523565b851115610b36576013808054905087610a85919061479a565b81548110610a9657610a95614887565b5b906000526020600020018054610aab906146ee565b80601f0160208091040260200160405190810160405280929190818152602001828054610ad7906146ee565b8015610b245780601f10610af957610100808354040283529160200191610b24565b820191906000526020600020905b815481529060010190602001808311610b0757829003601f168201915b50505050509650505050505050610d96565b8183610b429190614523565b851115610c0c576012808054905087610b5b919061479a565b81548110610b6c57610b6b614887565b5b906000526020600020018054610b81906146ee565b80601f0160208091040260200160405190810160405280929190818152602001828054610bad906146ee565b8015610bfa5780601f10610bcf57610100808354040283529160200191610bfa565b820191906000526020600020905b815481529060010190602001808311610bdd57829003601f168201915b50505050509650505050505050610d96565b82851115610cd7576011808054905087610c26919061479a565b81548110610c3757610c36614887565b5b906000526020600020018054610c4c906146ee565b80601f0160208091040260200160405190810160405280929190818152602001828054610c78906146ee565b8015610cc55780601f10610c9a57610100808354040283529160200191610cc5565b820191906000526020600020905b815481529060010190602001808311610ca857829003601f168201915b50505050509650505050505050610d96565b6010808054905087610ce9919061479a565b81548110610cfa57610cf9614887565b5b906000526020600020018054610d0f906146ee565b80601f0160208091040260200160405190810160405280929190818152602001828054610d3b906146ee565b8015610d885780601f10610d5d57610100808354040283529160200191610d88565b820191906000526020600020905b815481529060010190602001808311610d6b57829003601f168201915b505050505096505050505050505b919050565b6000600880549050905090565b610db061216e565b73ffffffffffffffffffffffffffffffffffffffff16610dce611605565b73ffffffffffffffffffffffffffffffffffffffff1614610e24576040517f08c379a0000000000000000000000000000000000000000000000000000000008152600401610e1b9061433a565b60405180910390fd5b80600b60146101000a81548160ff02191690831515021790555050565b610e52610e4c61216e565b826123c3565b610e91576040517f08c379a0000000000000000000000000000000000000000000000000000000008152600401610e88906143ba565b60405180910390fd5b610e9c8383836124a1565b505050565b6000610eac836114c5565b8210610eed576040517f08c379a0000000000000000000000000000000000000000000000000000000008152600401610ee4906141ba565b60405180910390fd5b600660008473ffffffffffffffffffffffffffffffffffffffff1673ffffffffffffffffffffffffffffffffffffffff168152602001908152602001600020600083815260200190815260200160002054905092915050565b60606000610f7a610f568461222f565b604051602001610f6691906140f4565b604051602081830303815290604052612390565b90506000606482610f8b919061479a565b90506011601483610f9c919061479a565b1115611026576000610fd4610fb08661222f565b604051602001610fc0919061408e565b604051602081830303815290604052612390565b90506000606482610fe5919061479a565b9050610ff183856126fd565b610ffb82846126fd565b60405160200161100c929190613f5f565b604051602081830303815290604052945050505050611035565b61103081836126fd565b925050505b919050565b61104261216e565b73ffffffffffffffffffffffffffffffffffffffff16611060611605565b73ffffffffffffffffffffffffffffffffffffffff16146110b6576040517f08c379a00000000000000000000000000000000000000000000000000000000081526004016110ad9061433a565b60405180910390fd5b60006004476110c59190614579565b9050600e60009054906101000a900473ffffffffffffffffffffffffffffffffffffffff1673ffffffffffffffffffffffffffffffffffffffff166108fc60038361111091906145aa565b9081150290604051600060405180830381858888f1935050505015801561113b573d6000803e3d6000fd5b50600f60009054906101000a900473ffffffffffffffffffffffffffffffffffffffff1673ffffffffffffffffffffffffffffffffffffffff166108fc829081150290604051600060405180830381858888f193505050501580156111a4573d6000803e3d6000fd5b5050565b6111c3838383604051806020016040528060008152506118e5565b505050565b60006111d2610d9b565b8210611213576040517f08c379a000000000000000000000000000000000000000000000000000000000815260040161120a906143da565b60405180910390fd5b6008828154811061122757611226614887565b5b90600052602060002001549050919050565b6060600061126d6112498461222f565b60405160200161125991906140d2565b604051602081830303815290604052612390565b9050600060148054905082611282919061479a565b90506011601483611293919061479a565b111561135f5760006112cb6112a78661222f565b6040516020016112b7919061404a565b604051602081830303815290604052612390565b90506000601480549050826112e0919061479a565b90508060ff168360ff161461135c5760148360ff168154811061130657611305614887565b5b9060005260206000200160148260ff168154811061132757611326614887565b5b90600052602060002001604051602001611342929190613f8e565b60405160208183030381529060405294505050505061140e565b50505b60148160ff168154811061137657611375614887565b5b90600052602060002001805461138b906146ee565b80601f01602080910402602001604051908101604052809291908181526020018280546113b7906146ee565b80156114045780601f106113d957610100808354040283529160200191611404565b820191906000526020600020905b8154815290600101906020018083116113e757829003601f168201915b5050505050925050505b919050565b6000806002600084815260200190815260200160002060009054906101000a900473ffffffffffffffffffffffffffffffffffffffff169050600073ffffffffffffffffffffffffffffffffffffffff168173ffffffffffffffffffffffffffffffffffffffff1614156114bc576040517f08c379a00000000000000000000000000000000000000000000000000000000081526004016114b3906142da565b60405180910390fd5b80915050919050565b60008073ffffffffffffffffffffffffffffffffffffffff168273ffffffffffffffffffffffffffffffffffffffff161415611536576040517f08c379a000000000000000000000000000000000000000000000000000000000815260040161152d906142ba565b60405180910390fd5b600360008373ffffffffffffffffffffffffffffffffffffffff1673ffffffffffffffffffffffffffffffffffffffff168152602001908152602001600020549050919050565b61158561216e565b73ffffffffffffffffffffffffffffffffffffffff166115a3611605565b73ffffffffffffffffffffffffffffffffffffffff16146115f9576040517f08c379a00000000000000000000000000000000000000000000000000000000081526004016115f09061433a565b60405180910390fd5b6116036000612a19565b565b6000600b60009054906101000a900473ffffffffffffffffffffffffffffffffffffffff16905090565b61163761216e565b73ffffffffffffffffffffffffffffffffffffffff16611655611605565b73ffffffffffffffffffffffffffffffffffffffff16146116ab576040517f08c379a00000000000000000000000000000000000000000000000000000000081526004016116a29061433a565b60405180910390fd5b80600c8190555050565b6060600180546116c4906146ee565b80601f01602080910402602001604051908101604052809291908181526020018280546116f0906146ee565b801561173d5780601f106117125761010080835404028352916020019161173d565b820191906000526020600020905b81548152906001019060200180831161172057829003601f168201915b5050505050905090565b6000600c54905090565b600b60149054906101000a900460ff1681565b61176c61216e565b73ffffffffffffffffffffffffffffffffffffffff168273ffffffffffffffffffffffffffffffffffffffff1614156117da576040517f08c379a00000000000000000000000000000000000000000000000000000000081526004016117d19061425a565b60405180910390fd5b80600560006117e761216e565b73ffffffffffffffffffffffffffffffffffffffff1673ffffffffffffffffffffffffffffffffffffffff16815260200190815260200160002060008473ffffffffffffffffffffffffffffffffffffffff1673ffffffffffffffffffffffffffffffffffffffff16815260200190815260200160002060006101000a81548160ff0219169083151502179055508173ffffffffffffffffffffffffffffffffffffffff1661189461216e565b73ffffffffffffffffffffffffffffffffffffffff167f17307eab39ab6107e8899845ad3d59bd9653f200f220920489ca2b5937696c31836040516118d9919061417d565b60405180910390a35050565b6118f66118f061216e565b836123c3565b611935576040517f08c379a000000000000000000000000000000000000000000000000000000000815260040161192c906143ba565b60405180910390fd5b61194184848484612adf565b50505050565b606060006119548361098b565b9050600061196184611239565b9050600061196e85610f46565b905061197861354d565b6040518060a001604052806062815260200161539460629139816000600a81106119a5576119a4614887565b5b60200201819052506040518060e0016040528060ac81526020016152b860ac9139816001600a81106119da576119d9614887565b5b602002018190525060405180606001604052806030815260200161536460309139816002600a8110611a0f57611a0e614887565b5b60200201819052506040518060c001604052806081815260200161543660819139816003600a8110611a4457611a43614887565b5b602002018190525083816004600a8110611a6157611a60614887565b5b60200201819052506040518060c00160405280608b8152602001615546608b9139816005600a8110611a9657611a95614887565b5b602002018190525082816006600a8110611ab357611ab2614887565b5b60200201819052506040518060c00160405280608f81526020016154b7608f9139816007600a8110611ae857611ae7614887565b5b602002018190525081816008600a8110611b0557611b04614887565b5b60200201819052506040518060400160405280600d81526020017f3c2f746578743e3c2f7376673e00000000000000000000000000000000000000815250816009600a8110611b5757611b56614887565b5b60200201819052506000816000600a8110611b7557611b74614887565b5b6020020151826001600a8110611b8e57611b8d614887565b5b6020020151836002600a8110611ba757611ba6614887565b5b6020020151846003600a8110611bc057611bbf614887565b5b6020020151856004600a8110611bd957611bd8614887565b5b6020020151866005600a8110611bf257611bf1614887565b5b6020020151876006600a8110611c0b57611c0a614887565b5b6020020151886007600a8110611c2457611c23614887565b5b6020020151896008600a8110611c3d57611c3c614887565b5b60200201518a6009600a8110611c5657611c55614887565b5b6020020151604051602001611c749a99989796959493929190613ed3565b6040516020818303038152906040529050611cc5611c918861222f565b868686611c9d86612b3b565b604051602001611cb1959493929190613fbd565b604051602081830303815290604052612b3b565b604051602001611cd5919061406c565b60405160208183030381529060405295505050505050919050565b6000600560008473ffffffffffffffffffffffffffffffffffffffff1673ffffffffffffffffffffffffffffffffffffffff16815260200190815260200160002060008373ffffffffffffffffffffffffffffffffffffffff1673ffffffffffffffffffffffffffffffffffffffff16815260200190815260200160002060009054906101000a900460ff16905092915050565b6002600a541415611dca576040517f08c379a0000000000000000000000000000000000000000000000000000000008152600401611dc19061443a565b60405180910390fd5b6002600a81905550600b60149054906101000a900460ff16611e21576040517f08c379a0000000000000000000000000000000000000000000000000000000008152600401611e189061441a565b60405180910390fd5b6001600a43611e309190614579565b611e3a9190614523565b81600d54611e489190614523565b10611e88576040517f08c379a0000000000000000000000000000000000000000000000000000000008152600401611e7f9061439a565b60405180910390fd5b80600c54611e9691906145aa565b341015611ed8576040517f08c379a0000000000000000000000000000000000000000000000000000000008152600401611ecf906143fa565b60405180910390fd5b60005b81811015611f1c576001600d6000828254611ef69190614523565b92505081905550611f0933600d54612cd3565b8080611f1490614751565b915050611edb565b506001600a8190555050565b611f3061216e565b73ffffffffffffffffffffffffffffffffffffffff16611f4e611605565b73ffffffffffffffffffffffffffffffffffffffff1614611fa4576040517f08c379a0000000000000000000000000000000000000000000000000000000008152600401611f9b9061433a565b60405180910390fd5b600073ffffffffffffffffffffffffffffffffffffffff168173ffffffffffffffffffffffffffffffffffffffff161415612014576040517f08c379a000000000000000000000000000000000000000000000000000000000815260040161200b906141fa565b60405180910390fd5b61201d81612a19565b50565b60007f80ac58cd000000000000000000000000000000000000000000000000000000007bffffffffffffffffffffffffffffffffffffffffffffffffffffffff1916827bffffffffffffffffffffffffffffffffffffffffffffffffffffffff191614806120eb57507f5b5e139f000000000000000000000000000000000000000000000000000000007bffffffffffffffffffffffffffffffffffffffffffffffffffffffff1916827bffffffffffffffffffffffffffffffffffffffffffffffffffffffff1916145b806120fb57506120fa82612cf1565b5b9050919050565b60008073ffffffffffffffffffffffffffffffffffffffff166002600084815260200190815260200160002060009054906101000a900473ffffffffffffffffffffffffffffffffffffffff1673ffffffffffffffffffffffffffffffffffffffff1614159050919050565b600033905090565b816004600083815260200190815260200160002060006101000a81548173ffffffffffffffffffffffffffffffffffffffff021916908373ffffffffffffffffffffffffffffffffffffffff160217905550808273ffffffffffffffffffffffffffffffffffffffff166121e983611413565b73ffffffffffffffffffffffffffffffffffffffff167f8c5be1e5ebec7d5bd14f71427d1e84f3dd0314c0f7b2291e5b200ac8c7c3b92560405160405180910390a45050565b60606000821415612277576040518060400160405280600181526020017f3000000000000000000000000000000000000000000000000000000000000000815250905061238b565b600082905060005b600082146122a957808061229290614751565b915050600a826122a29190614579565b915061227f565b60008167ffffffffffffffff8111156122c5576122c46148b6565b5b6040519080825280601f01601f1916602001820160405280156122f75781602001600182028036833780820191505090505b5090505b60008514612384576001826123109190614604565b9150600a8561231f919061479a565b603061232b9190614523565b60f81b81838151811061234157612340614887565b5b60200101907effffffffffffffffffffffffffffffffffffffffffffffffffffffffffffff1916908160001a905350600a8561237d9190614579565b94506122fb565b8093505050505b919050565b6000816040516020016123a39190613ebc565b6040516020818303038152906040528051906020012060001c9050919050565b60006123ce82612102565b61240d576040517f08c379a00000000000000000000000000000000000000000000000000000000081526004016124049061427a565b60405180910390fd5b600061241883611413565b90508073ffffffffffffffffffffffffffffffffffffffff168473ffffffffffffffffffffffffffffffffffffffff16148061248757508373ffffffffffffffffffffffffffffffffffffffff1661246f846107ee565b73ffffffffffffffffffffffffffffffffffffffff16145b8061249857506124978185611cf0565b5b91505092915050565b8273ffffffffffffffffffffffffffffffffffffffff166124c182611413565b73ffffffffffffffffffffffffffffffffffffffff1614612517576040517f08c379a000000000000000000000000000000000000000000000000000000000815260040161250e9061435a565b60405180910390fd5b600073ffffffffffffffffffffffffffffffffffffffff168273ffffffffffffffffffffffffffffffffffffffff161415612587576040517f08c379a000000000000000000000000000000000000000000000000000000000815260040161257e9061423a565b60405180910390fd5b612592838383612d5b565b61259d600082612176565b6001600360008573ffffffffffffffffffffffffffffffffffffffff1673ffffffffffffffffffffffffffffffffffffffff16815260200190815260200160002060008282546125ed9190614604565b925050819055506001600360008473ffffffffffffffffffffffffffffffffffffffff1673ffffffffffffffffffffffffffffffffffffffff16815260200190815260200160002060008282546126449190614523565b92505081905550816002600083815260200190815260200160002060006101000a81548173ffffffffffffffffffffffffffffffffffffffff021916908373ffffffffffffffffffffffffffffffffffffffff160217905550808273ffffffffffffffffffffffffffffffffffffffff168473ffffffffffffffffffffffffffffffffffffffff167fddf252ad1be2c89b69c2b068fc378daa952ba7f163c4a11628f55a4df523b3ef60405160405180910390a4505050565b606060418360ff1610156127c857601580805490508361271d919061479a565b8154811061272e5761272d614887565b5b906000526020600020018054612743906146ee565b80601f016020809104026020016040519081016040528092919081815260200182805461276f906146ee565b80156127bc5780601f10612791576101008083540402835291602001916127bc565b820191906000526020600020905b81548152906001019060200180831161279f57829003601f168201915b50505050509050612a13565b605a8360ff1610156128915760168080549050836127e6919061479a565b815481106127f7576127f6614887565b5b90600052602060002001805461280c906146ee565b80601f0160208091040260200160405190810160405280929190818152602001828054612838906146ee565b80156128855780601f1061285a57610100808354040283529160200191612885565b820191906000526020600020905b81548152906001019060200180831161286857829003601f168201915b50505050509050612a13565b60638360ff16101561295a5760178080549050836128af919061479a565b815481106128c0576128bf614887565b5b9060005260206000200180546128d5906146ee565b80601f0160208091040260200160405190810160405280929190818152602001828054612901906146ee565b801561294e5780601f106129235761010080835404028352916020019161294e565b820191906000526020600020905b81548152906001019060200180831161293157829003601f168201915b50505050509050612a13565b601880805490508361296c919061479a565b8154811061297d5761297c614887565b5b906000526020600020018054612992906146ee565b80601f01602080910402602001604051908101604052809291908181526020018280546129be906146ee565b8015612a0b5780601f106129e057610100808354040283529160200191612a0b565b820191906000526020600020905b8154815290600101906020018083116129ee57829003601f168201915b505050505090505b92915050565b6000600b60009054906101000a900473ffffffffffffffffffffffffffffffffffffffff16905081600b60006101000a81548173ffffffffffffffffffffffffffffffffffffffff021916908373ffffffffffffffffffffffffffffffffffffffff1602179055508173ffffffffffffffffffffffffffffffffffffffff168173ffffffffffffffffffffffffffffffffffffffff167f8be0079c531659141344cd1fd0a4f28419497f9722a3daafe3b4186f6b6457e060405160405180910390a35050565b612aea8484846124a1565b612af684848484612e6f565b612b35576040517f08c379a0000000000000000000000000000000000000000000000000000000008152600401612b2c906141da565b60405180910390fd5b50505050565b60606000825190506000811415612b645760405180602001604052806000815250915050612cce565b60006003600283612b759190614523565b612b7f9190614579565b6004612b8b91906145aa565b90506000602082612b9c9190614523565b67ffffffffffffffff811115612bb557612bb46148b6565b5b6040519080825280601f01601f191660200182016040528015612be75781602001600182028036833780820191505090505b50905060006040518060600160405280604081526020016153f6604091399050600181016020830160005b86811015612c8b5760038101905062ffffff818a015116603f8160121c168401518060081b905060ff603f83600c1c1686015116810190508060081b905060ff603f8360061c1686015116810190508060081b905060ff603f831686015116810190508060e01b90508084526004840193505050612c12565b506003860660018114612ca55760028114612cb557612cc0565b613d3d60f01b6002830352612cc0565b603d60f81b60018303525b508484525050819450505050505b919050565b612ced828260405180602001604052806000815250613006565b5050565b60007f01ffc9a7000000000000000000000000000000000000000000000000000000007bffffffffffffffffffffffffffffffffffffffffffffffffffffffff1916827bffffffffffffffffffffffffffffffffffffffffffffffffffffffff1916149050919050565b612d66838383613061565b600073ffffffffffffffffffffffffffffffffffffffff168373ffffffffffffffffffffffffffffffffffffffff161415612da957612da481613066565b612de8565b8173ffffffffffffffffffffffffffffffffffffffff168373ffffffffffffffffffffffffffffffffffffffff1614612de757612de683826130af565b5b5b600073ffffffffffffffffffffffffffffffffffffffff168273ffffffffffffffffffffffffffffffffffffffff161415612e2b57612e268161321c565b612e6a565b8273ffffffffffffffffffffffffffffffffffffffff168273ffffffffffffffffffffffffffffffffffffffff1614612e6957612e6882826132ed565b5b5b505050565b6000612e908473ffffffffffffffffffffffffffffffffffffffff1661336c565b15612ff9578373ffffffffffffffffffffffffffffffffffffffff1663150b7a02612eb961216e565b8786866040518563ffffffff1660e01b8152600401612edb9493929190614131565b602060405180830381600087803b158015612ef557600080fd5b505af1925050508015612f2657506040513d601f19601f82011682018060405250810190612f23919061386b565b60015b612fa9573d8060008114612f56576040519150601f19603f3d011682016040523d82523d6000602084013e612f5b565b606091505b50600081511415612fa1576040517f08c379a0000000000000000000000000000000000000000000000000000000008152600401612f98906141da565b60405180910390fd5b805181602001fd5b63150b7a0260e01b7bffffffffffffffffffffffffffffffffffffffffffffffffffffffff1916817bffffffffffffffffffffffffffffffffffffffffffffffffffffffff191614915050612ffe565b600190505b949350505050565b613010838361337f565b61301d6000848484612e6f565b61305c576040517f08c379a0000000000000000000000000000000000000000000000000000000008152600401613053906141da565b60405180910390fd5b505050565b505050565b6008805490506009600083815260200190815260200160002081905550600881908060018154018082558091505060019003906000526020600020016000909190919091505550565b600060016130bc846114c5565b6130c69190614604565b90506000600760008481526020019081526020016000205490508181146131ab576000600660008673ffffffffffffffffffffffffffffffffffffffff1673ffffffffffffffffffffffffffffffffffffffff168152602001908152602001600020600084815260200190815260200160002054905080600660008773ffffffffffffffffffffffffffffffffffffffff1673ffffffffffffffffffffffffffffffffffffffff168152602001908152602001600020600084815260200190815260200160002081905550816007600083815260200190815260200160002081905550505b6007600084815260200190815260200160002060009055600660008573ffffffffffffffffffffffffffffffffffffffff1673ffffffffffffffffffffffffffffffffffffffff16815260200190815260200160002060008381526020019081526020016000206000905550505050565b600060016008805490506132309190614604565b90506000600960008481526020019081526020016000205490506000600883815481106132605761325f614887565b5b90600052602060002001549050806008838154811061328257613281614887565b5b9060005260206000200181905550816009600083815260200190815260200160002081905550600960008581526020019081526020016000206000905560088054806132d1576132d0614858565b5b6001900381819060005260206000200160009055905550505050565b60006132f8836114c5565b905081600660008573ffffffffffffffffffffffffffffffffffffffff1673ffffffffffffffffffffffffffffffffffffffff168152602001908152602001600020600083815260200190815260200160002081905550806007600084815260200190815260200160002081905550505050565b600080823b905060008111915050919050565b600073ffffffffffffffffffffffffffffffffffffffff168273ffffffffffffffffffffffffffffffffffffffff1614156133ef576040517f08c379a00000000000000000000000000000000000000000000000000000000081526004016133e6906142fa565b60405180910390fd5b6133f881612102565b15613438576040517f08c379a000000000000000000000000000000000000000000000000000000000815260040161342f9061421a565b60405180910390fd5b61344460008383612d5b565b6001600360008473ffffffffffffffffffffffffffffffffffffffff1673ffffffffffffffffffffffffffffffffffffffff16815260200190815260200160002060008282546134949190614523565b92505081905550816002600083815260200190815260200160002060006101000a81548173ffffffffffffffffffffffffffffffffffffffff021916908373ffffffffffffffffffffffffffffffffffffffff160217905550808273ffffffffffffffffffffffffffffffffffffffff16600073ffffffffffffffffffffffffffffffffffffffff167fddf252ad1be2c89b69c2b068fc378daa952ba7f163c4a11628f55a4df523b3ef60405160405180910390a45050565b604051806101400160405280600a905b606081526020019060019003908161355d5790505090565b60006135886135838461449a565b614475565b9050828152602081018484840111156135a4576135a36148ea565b5b6135af8482856146ac565b509392505050565b6000813590506135c68161525b565b92915050565b6000813590506135db81615272565b92915050565b6000813590506135f081615289565b92915050565b60008151905061360581615289565b92915050565b600082601f8301126136205761361f6148e5565b5b8135613630848260208601613575565b91505092915050565b600081359050613648816152a0565b92915050565b600060208284031215613664576136636148f4565b5b6000613672848285016135b7565b91505092915050565b60008060408385031215613692576136916148f4565b5b60006136a0858286016135b7565b92505060206136b1858286016135b7565b9150509250929050565b6000806000606084860312156136d4576136d36148f4565b5b60006136e2868287016135b7565b93505060206136f3868287016135b7565b925050604061370486828701613639565b9150509250925092565b60008060008060808587031215613728576137276148f4565b5b6000613736878288016135b7565b9450506020613747878288016135b7565b935050604061375887828801613639565b925050606085013567ffffffffffffffff811115613779576137786148ef565b5b6137858782880161360b565b91505092959194509250565b600080604083850312156137a8576137a76148f4565b5b60006137b6858286016135b7565b92505060206137c7858286016135cc565b9150509250929050565b600080604083850312156137e8576137e76148f4565b5b60006137f6858286016135b7565b925050602061380785828601613639565b9150509250929050565b600060208284031215613827576138266148f4565b5b6000613835848285016135cc565b91505092915050565b600060208284031215613854576138536148f4565b5b6000613862848285016135e1565b91505092915050565b600060208284031215613881576138806148f4565b5b600061388f848285016135f6565b91505092915050565b6000602082840312156138ae576138ad6148f4565b5b60006138bc84828501613639565b91505092915050565b6138ce81614638565b82525050565b6138dd8161464a565b82525050565b60006138ee826144e0565b6138f881856144f6565b93506139088185602086016146bb565b613911816148f9565b840191505092915050565b6000613927826144eb565b6139318185614507565b93506139418185602086016146bb565b61394a816148f9565b840191505092915050565b6000613960826144eb565b61396a8185614518565b935061397a8185602086016146bb565b80840191505092915050565b60008154613993816146ee565b61399d8186614518565b945060018216600081146139b857600181146139c9576139fc565b60ff198316865281860193506139fc565b6139d2856144cb565b60005b838110156139f4578154818901526001820191506020810190506139d5565b838801955050505b50505092915050565b6000613a12602b83614507565b9150613a1d8261490a565b604082019050919050565b6000613a35603283614507565b9150613a4082614959565b604082019050919050565b6000613a58603483614518565b9150613a63826149a8565b603482019050919050565b6000613a7b602683614507565b9150613a86826149f7565b604082019050919050565b6000613a9e601c83614507565b9150613aa982614a46565b602082019050919050565b6000613ac1602483614507565b9150613acc82614a6f565b604082019050919050565b6000613ae4601983614507565b9150613aef82614abe565b602082019050919050565b6000613b07601583614518565b9150613b1282614ae7565b601582019050919050565b6000613b2b61014683614518565b9150613b3682614b10565b61014682019050919050565b6000613b4f602c83614507565b9150613b5a82614cb8565b604082019050919050565b6000613b72602783614518565b9150613b7d82614d07565b602782019050919050565b6000613b95603883614507565b9150613ba082614d56565b604082019050919050565b6000613bb8602a83614507565b9150613bc382614da5565b604082019050919050565b6000613bdb602983614507565b9150613be682614df4565b604082019050919050565b6000613bfe600283614518565b9150613c0982614e43565b600282019050919050565b6000613c21602083614507565b9150613c2c82614e6c565b602082019050919050565b6000613c44602c83614507565b9150613c4f82614e95565b604082019050919050565b6000613c67602083614507565b9150613c7282614ee4565b602082019050919050565b6000613c8a602983614507565b9150613c9582614f0d565b604082019050919050565b6000613cad602a83614518565b9150613cb882614f5c565b602a82019050919050565b6000613cd0600a83614518565b9150613cdb82614fab565b600a82019050919050565b6000613cf3602183614507565b9150613cfe82614fd4565b604082019050919050565b6000613d16601a83614507565b9150613d2182615023565b602082019050919050565b6000613d39601d83614518565b9150613d448261504c565b601d82019050919050565b6000613d5c603183614507565b9150613d6782615075565b604082019050919050565b6000613d7f600d83614518565b9150613d8a826150c4565b600d82019050919050565b6000613da2602c83614507565b9150613dad826150ed565b604082019050919050565b6000613dc5601583614507565b9150613dd08261513c565b602082019050919050565b6000613de8601983614507565b9150613df382615165565b602082019050919050565b6000613e0b600483614518565b9150613e168261518e565b600482019050919050565b6000613e2e600383614518565b9150613e39826151b7565b600382019050919050565b6000613e51601f83614507565b9150613e5c826151e0565b602082019050919050565b6000613e74600483614518565b9150613e7f82615209565b600482019050919050565b6000613e97600783614518565b9150613ea282615232565b600782019050919050565b613eb6816146a2565b82525050565b6000613ec88284613955565b915081905092915050565b6000613edf828d613955565b9150613eeb828c613955565b9150613ef7828b613955565b9150613f03828a613955565b9150613f0f8289613955565b9150613f1b8288613955565b9150613f278287613955565b9150613f338286613955565b9150613f3f8285613955565b9150613f4b8284613955565b91508190509b9a5050505050505050505050565b6000613f6b8285613955565b9150613f7682613e21565b9150613f828284613955565b91508190509392505050565b6000613f9a8285613986565b9150613fa582613e21565b9150613fb18284613986565b91508190509392505050565b6000613fc882613afa565b9150613fd48288613955565b9150613fdf82613a4b565b9150613feb8287613955565b9150613ff682613b65565b91506140028286613955565b915061400d82613ca0565b91506140198285613955565b915061402482613b1d565b91506140308284613955565b915061403b82613bf1565b91508190509695505050505050565b600061405582613cc3565b91506140618284613955565b915081905092915050565b600061407782613d2c565b91506140838284613955565b915081905092915050565b600061409982613d72565b91506140a58284613955565b915081905092915050565b60006140bb82613dfe565b91506140c78284613955565b915081905092915050565b60006140dd82613e67565b91506140e98284613955565b915081905092915050565b60006140ff82613e8a565b915061410b8284613955565b915081905092915050565b600060208201905061412b60008301846138c5565b92915050565b600060808201905061414660008301876138c5565b61415360208301866138c5565b6141606040830185613ead565b818103606083015261417281846138e3565b905095945050505050565b600060208201905061419260008301846138d4565b92915050565b600060208201905081810360008301526141b2818461391c565b905092915050565b600060208201905081810360008301526141d381613a05565b9050919050565b600060208201905081810360008301526141f381613a28565b9050919050565b6000602082019050818103600083015261421381613a6e565b9050919050565b6000602082019050818103600083015261423381613a91565b9050919050565b6000602082019050818103600083015261425381613ab4565b9050919050565b6000602082019050818103600083015261427381613ad7565b9050919050565b6000602082019050818103600083015261429381613b42565b9050919050565b600060208201905081810360008301526142b381613b88565b9050919050565b600060208201905081810360008301526142d381613bab565b9050919050565b600060208201905081810360008301526142f381613bce565b9050919050565b6000602082019050818103600083015261431381613c14565b9050919050565b6000602082019050818103600083015261433381613c37565b9050919050565b6000602082019050818103600083015261435381613c5a565b9050919050565b6000602082019050818103600083015261437381613c7d565b9050919050565b6000602082019050818103600083015261439381613ce6565b9050919050565b600060208201905081810360008301526143b381613d09565b9050919050565b600060208201905081810360008301526143d381613d4f565b9050919050565b600060208201905081810360008301526143f381613d95565b9050919050565b6000602082019050818103600083015261441381613db8565b9050919050565b6000602082019050818103600083015261443381613ddb565b9050919050565b6000602082019050818103600083015261445381613e44565b9050919050565b600060208201905061446f6000830184613ead565b92915050565b600061447f614490565b905061448b8282614720565b919050565b6000604051905090565b600067ffffffffffffffff8211156144b5576144b46148b6565b5b6144be826148f9565b9050602081019050919050565b60008190508160005260206000209050919050565b600081519050919050565b600081519050919050565b600082825260208201905092915050565b600082825260208201905092915050565b600081905092915050565b600061452e826146a2565b9150614539836146a2565b9250827fffffffffffffffffffffffffffffffffffffffffffffffffffffffffffffffff0382111561456e5761456d6147cb565b5b828201905092915050565b6000614584826146a2565b915061458f836146a2565b92508261459f5761459e6147fa565b5b828204905092915050565b60006145b5826146a2565b91506145c0836146a2565b9250817fffffffffffffffffffffffffffffffffffffffffffffffffffffffffffffffff04831182151516156145f9576145f86147cb565b5b828202905092915050565b600061460f826146a2565b915061461a836146a2565b92508282101561462d5761462c6147cb565b5b828203905092915050565b600061464382614682565b9050919050565b60008115159050919050565b60007fffffffff0000000000000000000000000000000000000000000000000000000082169050919050565b600073ffffffffffffffffffffffffffffffffffffffff82169050919050565b6000819050919050565b82818337600083830152505050565b60005b838110156146d95780820151818401526020810190506146be565b838111156146e8576000848401525b50505050565b6000600282049050600182168061470657607f821691505b6020821081141561471a57614719614829565b5b50919050565b614729826148f9565b810181811067ffffffffffffffff82111715614748576147476148b6565b5b80604052505050565b600061475c826146a2565b91507fffffffffffffffffffffffffffffffffffffffffffffffffffffffffffffffff82141561478f5761478e6147cb565b5b600182019050919050565b60006147a5826146a2565b91506147b0836146a2565b9250826147c0576147bf6147fa565b5b828206905092915050565b7f4e487b7100000000000000000000000000000000000000000000000000000000600052601160045260246000fd5b7f4e487b7100000000000000000000000000000000000000000000000000000000600052601260045260246000fd5b7f4e487b7100000000000000000000000000000000000000000000000000000000600052602260045260246000fd5b7f4e487b7100000000000000000000000000000000000000000000000000000000600052603160045260246000fd5b7f4e487b7100000000000000000000000000000000000000000000000000000000600052603260045260246000fd5b7f4e487b7100000000000000000000000000000000000000000000000000000000600052604160045260246000fd5b600080fd5b600080fd5b600080fd5b600080fd5b6000601f19601f8301169050919050565b7f455243373231456e756d657261626c653a206f776e657220696e646578206f7560008201527f74206f6620626f756e6473000000000000000000000000000000000000000000602082015250565b7f4552433732313a207472616e7366657220746f206e6f6e20455243373231526560008201527f63656976657220696d706c656d656e7465720000000000000000000000000000602082015250565b7f222c202261747472696275746573223a205b7b202274726169745f747970652260008201527f3a202252616365222c202276616c7565223a2022000000000000000000000000602082015250565b7f4f776e61626c653a206e6577206f776e657220697320746865207a65726f206160008201527f6464726573730000000000000000000000000000000000000000000000000000602082015250565b7f4552433732313a20746f6b656e20616c7265616479206d696e74656400000000600082015250565b7f4552433732313a207472616e7366657220746f20746865207a65726f2061646460008201527f7265737300000000000000000000000000000000000000000000000000000000602082015250565b7f4552433732313a20617070726f766520746f2063616c6c657200000000000000600082015250565b7f7b226e616d65223a202243686172616374657220230000000000000000000000600082015250565b7f22207d5d2c20226465736372697074696f6e223a20224368617261637465722060008201527f697320612072616e646f6d697a656420525047206964656e746974792067656e60208201527f65726174656420616e642073746f726564206f6e20636861696e2e204964656e60408201527f7469747920697320636f6d706f736564206f6620726163652c20726f6c652c2060608201527f616e6420656c656d656e7420616666696e6974792e204d6178696d756d20737560808201527f70706c79206f6620436861726163746572732069732064796e616d69632c206960a08201527f6e6372656173696e6720617420312f313074682074686520626c6f636b20726160c08201527f7465206f6620457468657265756d2e204665656c206672656520746f2075736560e08201527f2043686172616374657220696e20616e792077617920796f752077616e742e226101008201527f2c2022696d616765223a2022646174613a696d6167652f7376672b786d6c3b626101208201527f61736536342c000000000000000000000000000000000000000000000000000061014082015250565b7f4552433732313a206f70657261746f7220717565727920666f72206e6f6e657860008201527f697374656e7420746f6b656e0000000000000000000000000000000000000000602082015250565b7f22207d2c207b202274726169745f74797065223a2022526f6c65222c2022766160008201527f6c7565223a202200000000000000000000000000000000000000000000000000602082015250565b7f4552433732313a20617070726f76652063616c6c6572206973206e6f74206f7760008201527f6e6572206e6f7220617070726f76656420666f7220616c6c0000000000000000602082015250565b7f4552433732313a2062616c616e636520717565727920666f7220746865207a6560008201527f726f206164647265737300000000000000000000000000000000000000000000602082015250565b7f4552433732313a206f776e657220717565727920666f72206e6f6e657869737460008201527f656e7420746f6b656e0000000000000000000000000000000000000000000000602082015250565b7f227d000000000000000000000000000000000000000000000000000000000000600082015250565b7f4552433732313a206d696e7420746f20746865207a65726f2061646472657373600082015250565b7f4552433732313a20617070726f76656420717565727920666f72206e6f6e657860008201527f697374656e7420746f6b656e0000000000000000000000000000000000000000602082015250565b7f4f776e61626c653a2063616c6c6572206973206e6f7420746865206f776e6572600082015250565b7f4552433732313a207472616e73666572206f6620746f6b656e2074686174206960008201527f73206e6f74206f776e0000000000000000000000000000000000000000000000602082015250565b7f22207d2c207b202274726169745f74797065223a2022456c656d656e74222c2060008201527f2276616c7565223a202200000000000000000000000000000000000000000000602082015250565b7f5345434f4e44524f4c4500000000000000000000000000000000000000000000600082015250565b7f4552433732313a20617070726f76616c20746f2063757272656e74206f776e6560008201527f7200000000000000000000000000000000000000000000000000000000000000602082015250565b7f4e6f204368617261637465727320746f206d696e74206e6f772e000000000000600082015250565b7f646174613a6170706c69636174696f6e2f6a736f6e3b6261736536342c000000600082015250565b7f4552433732313a207472616e736665722063616c6c6572206973206e6f74206f60008201527f776e6572206e6f7220617070726f766564000000000000000000000000000000602082015250565b7f5345434f4e44454c454d454e5400000000000000000000000000000000000000600082015250565b7f455243373231456e756d657261626c653a20676c6f62616c20696e646578206f60008201527f7574206f6620626f756e64730000000000000000000000000000000000000000602082015250565b7f4e6f7420656e6f7567682065746865722073656e740000000000000000000000600082015250565b7f5075626c6963206d696e74696e67206973207061757365642e00000000000000600082015250565b7f5241434500000000000000000000000000000000000000000000000000000000600082015250565b7f202b200000000000000000000000000000000000000000000000000000000000600082015250565b7f5265656e7472616e637947756172643a207265656e7472616e742063616c6c00600082015250565b7f524f4c4500000000000000000000000000000000000000000000000000000000600082015250565b7f454c454d454e5400000000000000000000000000000000000000000000000000600082015250565b61526481614638565b811461526f57600080fd5b50565b61527b8161464a565b811461528657600080fd5b50565b61529281614656565b811461529d57600080fd5b50565b6152a9816146a2565b81146152b457600080fd5b5056fe3c7374796c653e2e74657874207b2066696c6c3a2077686974653b20666f6e742d66616d696c793a2073657269663b20666f6e742d73697a653a20313470783b207d202e6865616465722d74657874207b20666f6e742d7765696768743a20626f6c643b207d202e6865616465722d6261636b67726f756e64207b2066696c6c3a20233333333b206865696768743a20333070783b2077696474683a20313030253b207d3c2f7374796c653e3c726563742077696474683d223130302522206865696768743d2231303025222066696c6c3d22626c61636b22202f3e3c73766720786d6c6e733d22687474703a2f2f7777772e77332e6f72672f323030302f73766722207072657365727665417370656374526174696f3d22784d696e594d696e206d656574222076696577426f783d223020302033353020333530223e4142434445464748494a4b4c4d4e4f505152535455565758595a6162636465666768696a6b6c6d6e6f707172737475767778797a303132333435363738392b2f3c7265637420793d22302220636c6173733d226865616465722d6261636b67726f756e6422202f3e3c7465787420783d2231302220793d2232302220636c6173733d2274657874206865616465722d74657874223e526163653c2f746578743e3c7465787420783d2231302220793d2235302220636c6173733d2274657874223e3c2f746578743e3c7265637420793d223136302220636c6173733d226865616465722d6261636b67726f756e6422202f3e3c7465787420783d2231302220793d223138302220636c6173733d2274657874206865616465722d74657874223e456c656d656e743c2f746578743e3c7465787420783d2231302220793d223231302220636c6173733d2274657874223e3c2f746578743e3c7265637420793d2238302220636c6173733d226865616465722d6261636b67726f756e6422202f3e3c7465787420783d2231302220793d223130302220636c6173733d2274657874206865616465722d74657874223e526f6c653c2f746578743e3c7465787420783d2231302220793d223133302220636c6173733d2274657874223ea26469706673582212208a55311ca1fb4d64d2b7a077a7f6a0e218c4d2cf8986d0b5be8082f3e7921e5664736f6c63430008060033",
  "linkReferences": {},
  "deployedLinkReferences": {}
}