{
  "_format": "hh-sol-artifact-1",
  "contractName": "Character",
  "sourceName": "contracts/character.sol",
  "abi": [
    {
      "inputs": [],
      "stateMutability": "nonpayable",
      "type": "constructor"
    },
    {
      "anonymous": false,
      "inputs": [
        {
          "indexed": true,
          "internalType": "address",
          "name": "owner",
          "type": "address"
        },
        {
          "indexed": true,
          "internalType": "address",
          "name": "approved",
          "type": "address"
        },
        {
          "indexed": true,
          "internalType": "uint256",
          "name": "tokenId",
          "type": "uint256"
        }
      ],
      "name": "Approval",
      "type": "event"
    },
    {
      "anonymous": false,
      "inputs": [
        {
          "indexed": true,
          "internalType": "address",
          "name": "owner",
          "type": "address"
        },
        {
          "indexed": true,
          "internalType": "address",
          "name": "operator",
          "type": "address"
        },
        {
          "indexed": false,
          "internalType": "bool",
          "name": "approved",
          "type": "bool"
        }
      ],
      "name": "ApprovalForAll",
      "type": "event"
    },
    {
      "anonymous": false,
      "inputs": [
        {
          "indexed": true,
          "internalType": "address",
          "name": "previousOwner",
          "type": "address"
        },
        {
          "indexed": true,
          "internalType": "address",
          "name": "newOwner",
          "type": "address"
        }
      ],
      "name": "OwnershipTransferred",
      "type": "event"
    },
    {
      "anonymous": false,
      "inputs": [
        {
          "indexed": true,
          "internalType": "address",
          "name": "from",
          "type": "address"
        },
        {
          "indexed": true,
          "internalType": "address",
          "name": "to",
          "type": "address"
        },
        {
          "indexed": true,
          "internalType": "uint256",
          "name": "tokenId",
          "type": "uint256"
        }
      ],
      "name": "Transfer",
      "type": "event"
    },
    {
      "inputs": [],
      "name": "_mintActive",
      "outputs": [
        {
          "internalType": "bool",
          "name": "",
          "type": "bool"
        }
      ],
      "stateMutability": "view",
      "type": "function"
    },
    {
      "inputs": [
        {
          "internalType": "address",
          "name": "to",
          "type": "address"
        },
        {
          "internalType": "uint256",
          "name": "tokenId",
          "type": "uint256"
        }
      ],
      "name": "approve",
      "outputs": [],
      "stateMutability": "nonpayable",
      "type": "function"
    },
    {
      "inputs": [
        {
          "internalType": "address",
          "name": "owner",
          "type": "address"
        }
      ],
      "name": "balanceOf",
      "outputs": [
        {
          "internalType": "uint256",
          "name": "",
          "type": "uint256"
        }
      ],
      "stateMutability": "view",
      "type": "function"
    },
    {
      "inputs": [
        {
          "internalType": "uint256",
          "name": "tokenId",
          "type": "uint256"
        }
      ],
      "name": "getApproved",
      "outputs": [
        {
          "internalType": "address",
          "name": "",
          "type": "address"
        }
      ],
      "stateMutability": "view",
      "type": "function"
    },
    {
      "inputs": [
        {
          "internalType": "uint256",
          "name": "tokenId",
          "type": "uint256"
        }
      ],
      "name": "getClass",
      "outputs": [
        {
          "internalType": "string",
          "name": "",
          "type": "string"
        }
      ],
      "stateMutability": "view",
      "type": "function"
    },
    {
      "inputs": [
        {
          "internalType": "uint256",
          "name": "tokenId",
          "type": "uint256"
        }
      ],
      "name": "getElement",
      "outputs": [
        {
          "internalType": "string",
          "name": "",
          "type": "string"
        }
      ],
      "stateMutability": "view",
      "type": "function"
    },
    {
      "inputs": [],
      "name": "getPrice",
      "outputs": [
        {
          "internalType": "uint256",
          "name": "",
          "type": "uint256"
        }
      ],
      "stateMutability": "view",
      "type": "function"
    },
    {
      "inputs": [
        {
          "internalType": "uint256",
          "name": "tokenId",
          "type": "uint256"
        }
      ],
      "name": "getRace",
      "outputs": [
        {
          "internalType": "string",
          "name": "",
          "type": "string"
        }
      ],
      "stateMutability": "view",
      "type": "function"
    },
    {
      "inputs": [
        {
          "internalType": "address",
          "name": "owner",
          "type": "address"
        },
        {
          "internalType": "address",
          "name": "operator",
          "type": "address"
        }
      ],
      "name": "isApprovedForAll",
      "outputs": [
        {
          "internalType": "bool",
          "name": "",
          "type": "bool"
        }
      ],
      "stateMutability": "view",
      "type": "function"
    },
    {
      "inputs": [
        {
          "internalType": "uint256",
          "name": "numToMint",
          "type": "uint256"
        }
      ],
      "name": "mintPublic",
      "outputs": [],
      "stateMutability": "payable",
      "type": "function"
    },
    {
      "inputs": [],
      "name": "name",
      "outputs": [
        {
          "internalType": "string",
          "name": "",
          "type": "string"
        }
      ],
      "stateMutability": "view",
      "type": "function"
    },
    {
      "inputs": [],
      "name": "owner",
      "outputs": [
        {
          "internalType": "address",
          "name": "",
          "type": "address"
        }
      ],
      "stateMutability": "view",
      "type": "function"
    },
    {
      "inputs": [
        {
          "internalType": "uint256",
          "name": "tokenId",
          "type": "uint256"
        }
      ],
      "name": "ownerOf",
      "outputs": [
        {
          "internalType": "address",
          "name": "",
          "type": "address"
        }
      ],
      "stateMutability": "view",
      "type": "function"
    },
    {
      "inputs": [],
      "name": "renounceOwnership",
      "outputs": [],
      "stateMutability": "nonpayable",
      "type": "function"
    },
    {
      "inputs": [
        {
          "internalType": "address",
          "name": "from",
          "type": "address"
        },
        {
          "internalType": "address",
          "name": "to",
          "type": "address"
        },
        {
          "internalType": "uint256",
          "name": "tokenId",
          "type": "uint256"
        }
      ],
      "name": "safeTransferFrom",
      "outputs": [],
      "stateMutability": "nonpayable",
      "type": "function"
    },
    {
      "inputs": [
        {
          "internalType": "address",
          "name": "from",
          "type": "address"
        },
        {
          "internalType": "address",
          "name": "to",
          "type": "address"
        },
        {
          "internalType": "uint256",
          "name": "tokenId",
          "type": "uint256"
        },
        {
          "internalType": "bytes",
          "name": "_data",
          "type": "bytes"
        }
      ],
      "name": "safeTransferFrom",
      "outputs": [],
      "stateMutability": "nonpayable",
      "type": "function"
    },
    {
      "inputs": [
        {
          "internalType": "address",
          "name": "operator",
          "type": "address"
        },
        {
          "internalType": "bool",
          "name": "approved",
          "type": "bool"
        }
      ],
      "name": "setApprovalForAll",
      "outputs": [],
      "stateMutability": "nonpayable",
      "type": "function"
    },
    {
      "inputs": [
        {
          "internalType": "bool",
          "name": "newMintStatus",
          "type": "bool"
        }
      ],
      "name": "setMintStatus",
      "outputs": [],
      "stateMutability": "nonpayable",
      "type": "function"
    },
    {
      "inputs": [
        {
          "internalType": "uint256",
          "name": "_newPrice",
          "type": "uint256"
        }
      ],
      "name": "setPrice",
      "outputs": [],
      "stateMutability": "nonpayable",
      "type": "function"
    },
    {
      "inputs": [
        {
          "internalType": "bytes4",
          "name": "interfaceId",
          "type": "bytes4"
        }
      ],
      "name": "supportsInterface",
      "outputs": [
        {
          "internalType": "bool",
          "name": "",
          "type": "bool"
        }
      ],
      "stateMutability": "view",
      "type": "function"
    },
    {
      "inputs": [],
      "name": "symbol",
      "outputs": [
        {
          "internalType": "string",
          "name": "",
          "type": "string"
        }
      ],
      "stateMutability": "view",
      "type": "function"
    },
    {
      "inputs": [
        {
          "internalType": "uint256",
          "name": "index",
          "type": "uint256"
        }
      ],
      "name": "tokenByIndex",
      "outputs": [
        {
          "internalType": "uint256",
          "name": "",
          "type": "uint256"
        }
      ],
      "stateMutability": "view",
      "type": "function"
    },
    {
      "inputs": [
        {
          "internalType": "address",
          "name": "owner",
          "type": "address"
        },
        {
          "internalType": "uint256",
          "name": "index",
          "type": "uint256"
        }
      ],
      "name": "tokenOfOwnerByIndex",
      "outputs": [
        {
          "internalType": "uint256",
          "name": "",
          "type": "uint256"
        }
      ],
      "stateMutability": "view",
      "type": "function"
    },
    {
      "inputs": [
        {
          "internalType": "uint256",
          "name": "tokenId",
          "type": "uint256"
        }
      ],
      "name": "tokenURI",
      "outputs": [
        {
          "internalType": "string",
          "name": "",
          "type": "string"
        }
      ],
      "stateMutability": "view",
      "type": "function"
    },
    {
      "inputs": [],
      "name": "totalSupply",
      "outputs": [
        {
          "internalType": "uint256",
          "name": "",
          "type": "uint256"
        }
      ],
      "stateMutability": "view",
      "type": "function"
    },
    {
      "inputs": [
        {
          "internalType": "address",
          "name": "from",
          "type": "address"
        },
        {
          "internalType": "address",
          "name": "to",
          "type": "address"
        },
        {
          "internalType": "uint256",
          "name": "tokenId",
          "type": "uint256"
        }
      ],
      "name": "transferFrom",
      "outputs": [],
      "stateMutability": "nonpayable",
      "type": "function"
    },
    {
      "inputs": [
        {
          "internalType": "address",
          "name": "newOwner",
          "type": "address"
        }
      ],
      "name": "transferOwnership",
      "outputs": [],
      "stateMutability": "nonpayable",
      "type": "function"
    }
  ],
  "bytecode": "0x60806040526001600b60146101000a81548160ff02191690831515021790555066b1a2bc2ec50000600c556000600d5560405180608001604052806040518060400160405280600581526020017f466169727900000000000000000000000000000000000000000000000000000081525081526020016040518060400160405280600581526020017f446a696e6e00000000000000000000000000000000000000000000000000000081525081526020016040518060400160405280600581526020017f44656d6f6e00000000000000000000000000000000000000000000000000000081525081526020016040518060400160405280600581526020017f416e67656c000000000000000000000000000000000000000000000000000000815250815250600e9060046200013692919062001355565b506040518060c001604052806040518060400160405280600881526020017f4461726b20456c6600000000000000000000000000000000000000000000000081525081526020016040518060400160405280600781526020017f43656e746175720000000000000000000000000000000000000000000000000081525081526020016040518060400160405280600581526020017f4769616e7400000000000000000000000000000000000000000000000000000081525081526020016040518060400160405280600881526020017f48616c666c696e6700000000000000000000000000000000000000000000000081525081526020016040518060400160405280600781526020017f56616d706972650000000000000000000000000000000000000000000000000081525081526020016040518060400160405280600581526020017f416c69656e000000000000000000000000000000000000000000000000000000815250815250600f906006620002b4929190620013bc565b506040518060a001604052806040518060400160405280600381526020017f456c66000000000000000000000000000000000000000000000000000000000081525081526020016040518060400160405280600581526020017f447761726600000000000000000000000000000000000000000000000000000081525081526020016040518060400160405280600581526020017f476e6f6d6500000000000000000000000000000000000000000000000000000081525081526020016040518060400160405280600681526020017f476f626c696e000000000000000000000000000000000000000000000000000081525081526020016040518060400160405280600581526020017f526f626f740000000000000000000000000000000000000000000000000000008152508152506010906005620003f792919062001423565b506040518060c001604052806040518060400160405280600581526020017f48756d616e00000000000000000000000000000000000000000000000000000081525081526020016040518060400160405280600381526020017f4f7263000000000000000000000000000000000000000000000000000000000081525081526020016040518060400160405280600681526020017f556e64656164000000000000000000000000000000000000000000000000000081525081526020016040518060400160405280600881526020017f41706520466f6c6b00000000000000000000000000000000000000000000000081525081526020016040518060400160405280600881526020017f43617420466f6c6b00000000000000000000000000000000000000000000000081525081526020016040518060400160405280600b81526020017f4c697a61726420466f6c6b000000000000000000000000000000000000000000815250815250601190600662000575929190620013bc565b50604051806105e001604052806040518060400160405280600681526020017f417274697374000000000000000000000000000000000000000000000000000081525081526020016040518060400160405280600481526020017f426172640000000000000000000000000000000000000000000000000000000081525081526020016040518060400160405280600681526020017f44616e636572000000000000000000000000000000000000000000000000000081525081526020016040518060400160405280600a81526020017f496e666c75656e6365720000000000000000000000000000000000000000000081525081526020016040518060400160405280600481526020017f436865660000000000000000000000000000000000000000000000000000000081525081526020016040518060400160405280600881526020017f5363756c70746f7200000000000000000000000000000000000000000000000081525081526020016040518060400160405280600881526020017f4578706c6f72657200000000000000000000000000000000000000000000000081525081526020016040518060400160405280600581526020017f53636f757400000000000000000000000000000000000000000000000000000081525081526020016040518060400160405280600681526020017f506972617465000000000000000000000000000000000000000000000000000081525081526020016040518060400160405280600981526020017f417374726f6e617574000000000000000000000000000000000000000000000081525081526020016040518060400160405280600581526020017f50696c6f7400000000000000000000000000000000000000000000000000000081525081526020016040518060400160405280600481526020017f4d6167650000000000000000000000000000000000000000000000000000000081525081526020016040518060400160405280600681526020017f4865616c6572000000000000000000000000000000000000000000000000000081525081526020016040518060400160405280600981526020017f456e6368616e746572000000000000000000000000000000000000000000000081525081526020016040518060400160405280600b81526020017f4e6563726f6d616e63657200000000000000000000000000000000000000000081525081526020016040518060400160405280600881526020017f53756d6d6f6e657200000000000000000000000000000000000000000000000081525081526020016040518060400160405280600e81526020017f4d61727469616c2041727469737400000000000000000000000000000000000081525081526020016040518060400160405280600481526020017f4d6f6e6b0000000000000000000000000000000000000000000000000000000081525081526020016040518060400160405280600481526020017f596f67690000000000000000000000000000000000000000000000000000000081525081526020016040518060400160405280600881526020017f4d65726368616e7400000000000000000000000000000000000000000000000081525081526020016040518060400160405280600881526020017f496e766573746f7200000000000000000000000000000000000000000000000081525081526020016040518060400160405280601281526020017f506174726f6e206f66207468652041727473000000000000000000000000000081525081526020016040518060400160405280600881526020017f54656c657061746800000000000000000000000000000000000000000000000081525081526020016040518060400160405280600b81526020017f54656c656b696e6574696300000000000000000000000000000000000000000081525081526020016040518060400160405280600c81526020017f536861706573686966746572000000000000000000000000000000000000000081525081526020016040518060400160405280600681526020017f52616e676572000000000000000000000000000000000000000000000000000081525081526020016040518060400160405280600c81526020017f4265617374204d6173746572000000000000000000000000000000000000000081525081526020016040518060400160405280600681526020017f48756e746572000000000000000000000000000000000000000000000000000081525081526020016040518060400160405280600981526020017f446574656374697665000000000000000000000000000000000000000000000081525081526020016040518060400160405280600581526020017f526f67756500000000000000000000000000000000000000000000000000000081525081526020016040518060400160405280600581526020017f546869656600000000000000000000000000000000000000000000000000000081525081526020016040518060400160405280600881526020017f417373617373696e00000000000000000000000000000000000000000000000081525081526020016040518060400160405280600581526020017f4e696e6a6100000000000000000000000000000000000000000000000000000081525081526020016040518060400160405280600381526020017f537079000000000000000000000000000000000000000000000000000000000081525081526020016040518060400160405280600481526020017f546563680000000000000000000000000000000000000000000000000000000081525081526020016040518060400160405280600981526020017f416c6368656d697374000000000000000000000000000000000000000000000081525081526020016040518060400160405280600881526020017f456e67696e65657200000000000000000000000000000000000000000000000081525081526020016040518060400160405280600881526020017f496e76656e746f7200000000000000000000000000000000000000000000000081525081526020016040518060400160405280600981526020017f536369656e74697374000000000000000000000000000000000000000000000081525081526020016040518060400160405280600681526020017f4861636b6572000000000000000000000000000000000000000000000000000081525081526020016040518060400160405280600a81526020017f426c61636b736d6974680000000000000000000000000000000000000000000081525081526020016040518060400160405280600781526020017f57617272696f720000000000000000000000000000000000000000000000000081525081526020016040518060400160405280600781526020017f50616c6164696e0000000000000000000000000000000000000000000000000081525081526020016040518060400160405280600681526020017f4b6e69676874000000000000000000000000000000000000000000000000000081525081526020016040518060400160405280600781526020017f53616d757261690000000000000000000000000000000000000000000000000081525081526020016040518060400160405280600c81526020017f44656d6f6e20536c61796572000000000000000000000000000000000000000081525081526020016040518060400160405280600981526020017f4265727365726b65720000000000000000000000000000000000000000000000815250815250601290602f620010679291906200148a565b506040518060a001604052806040518060400160405280600481526020017f466972650000000000000000000000000000000000000000000000000000000081525081526020016040518060400160405280600481526020017f57696e640000000000000000000000000000000000000000000000000000000081525081526020016040518060400160405280600981526020017f4c696768746e696e67000000000000000000000000000000000000000000000081525081526020016040518060400160405280600581526020017f456172746800000000000000000000000000000000000000000000000000000081525081526020016040518060400160405280600581526020017f57617465720000000000000000000000000000000000000000000000000000008152508152506013906005620011aa92919062001423565b50348015620011b857600080fd5b506040518060400160405280600981526020017f43686172616374657200000000000000000000000000000000000000000000008152506040518060400160405280600481526020017f434841520000000000000000000000000000000000000000000000000000000081525081600090805190602001906200123d929190620014f1565b50806001908051906020019062001256929190620014f1565b5050506001600a8190555062001281620012756200128760201b60201c565b6200128f60201b60201c565b62001674565b600033905090565b6000600b60009054906101000a900473ffffffffffffffffffffffffffffffffffffffff16905081600b60006101000a81548173ffffffffffffffffffffffffffffffffffffffff021916908373ffffffffffffffffffffffffffffffffffffffff1602179055508173ffffffffffffffffffffffffffffffffffffffff168173ffffffffffffffffffffffffffffffffffffffff167f8be0079c531659141344cd1fd0a4f28419497f9722a3daafe3b4186f6b6457e060405160405180910390a35050565b828054828255906000526020600020908101928215620013a9579160200282015b82811115620013a857825182908051906020019062001397929190620014f1565b509160200191906001019062001376565b5b509050620013b8919062001582565b5090565b82805482825590600052602060002090810192821562001410579160200282015b828111156200140f578251829080519060200190620013fe929190620014f1565b5091602001919060010190620013dd565b5b5090506200141f919062001582565b5090565b82805482825590600052602060002090810192821562001477579160200282015b828111156200147657825182908051906020019062001465929190620014f1565b509160200191906001019062001444565b5b50905062001486919062001582565b5090565b828054828255906000526020600020908101928215620014de579160200282015b82811115620014dd578251829080519060200190620014cc929190620014f1565b5091602001919060010190620014ab565b5b509050620014ed919062001582565b5090565b828054620014ff906200160f565b90600052602060002090601f0160209004810192826200152357600085556200156f565b82601f106200153e57805160ff19168380011785556200156f565b828001600101855582156200156f579182015b828111156200156e57825182559160200191906001019062001551565b5b5090506200157e9190620015aa565b5090565b5b80821115620015a657600081816200159c9190620015c9565b5060010162001583565b5090565b5b80821115620015c5576000816000905550600101620015ab565b5090565b508054620015d7906200160f565b6000825580601f10620015eb57506200160c565b601f0160209004906000526020600020908101906200160b9190620015aa565b5b50565b600060028204905060018216806200162857607f821691505b602082108114156200163f576200163e62001645565b5b50919050565b7f4e487b7100000000000000000000000000000000000000000000000000000000600052602260045260246000fd5b6152eb80620016846000396000f3fe60806040526004361061019c5760003560e01c80636352211e116100ec5780639ef4b9aa1161008a578063c87b56dd11610064578063c87b56dd146105fe578063e985e9c51461063b578063efd0cbf914610678578063f2fde38b146106945761019c565b80639ef4b9aa14610581578063a22cb465146105ac578063b88d4fde146105d55761019c565b80638da5cb5b116100c65780638da5cb5b146104d757806391b7f5ed1461050257806395d89b411461052b57806398d5fdca146105565761019c565b80636352211e1461044657806370a0823114610483578063715018a6146104c05761019c565b80631f85e3ca116101595780633a7d22bc116101335780633a7d22bc1461036657806342842e0e146103a35780634f6ccce7146103cc578063512d62df146104095761019c565b80631f85e3ca146102d757806323b872dd146103005780632f745c59146103295761019c565b806301ffc9a7146101a157806306fdde03146101de578063081812fc14610209578063095ea7b3146102465780630d71aba51461026f57806318160ddd146102ac575b600080fd5b3480156101ad57600080fd5b506101c860048036038101906101c39190613562565b6106bd565b6040516101d59190613ed6565b60405180910390f35b3480156101ea57600080fd5b506101f3610737565b6040516102009190613ef1565b60405180910390f35b34801561021557600080fd5b50610230600480360381019061022b91906135bc565b6107c9565b60405161023d9190613e6f565b60405180910390f35b34801561025257600080fd5b5061026d600480360381019061026891906134f5565b61084e565b005b34801561027b57600080fd5b50610296600480360381019061029191906135bc565b610966565b6040516102a39190613ef1565b60405180910390f35b3480156102b857600080fd5b506102c1610dc6565b6040516102ce91906141f3565b60405180910390f35b3480156102e357600080fd5b506102fe60048036038101906102f99190613535565b610dd3565b005b34801561030c57600080fd5b50610327600480360381019061032291906133df565b610e6c565b005b34801561033557600080fd5b50610350600480360381019061034b91906134f5565b610ecc565b60405161035d91906141f3565b60405180910390f35b34801561037257600080fd5b5061038d600480360381019061038891906135bc565b610f71565b60405161039a9190613ef1565b60405180910390f35b3480156103af57600080fd5b506103ca60048036038101906103c591906133df565b6111e4565b005b3480156103d857600080fd5b506103f360048036038101906103ee91906135bc565b611204565b60405161040091906141f3565b60405180910390f35b34801561041557600080fd5b50610430600480360381019061042b91906135bc565b611275565b60405161043d9190613ef1565b60405180910390f35b34801561045257600080fd5b5061046d600480360381019061046891906135bc565b61149f565b60405161047a9190613e6f565b60405180910390f35b34801561048f57600080fd5b506104aa60048036038101906104a59190613372565b611551565b6040516104b791906141f3565b60405180910390f35b3480156104cc57600080fd5b506104d5611609565b005b3480156104e357600080fd5b506104ec611691565b6040516104f99190613e6f565b60405180910390f35b34801561050e57600080fd5b50610529600480360381019061052491906135bc565b6116bb565b005b34801561053757600080fd5b50610540611741565b60405161054d9190613ef1565b60405180910390f35b34801561056257600080fd5b5061056b6117d3565b60405161057891906141f3565b60405180910390f35b34801561058d57600080fd5b506105966117dd565b6040516105a39190613ed6565b60405180910390f35b3480156105b857600080fd5b506105d360048036038101906105ce91906134b5565b6117f0565b005b3480156105e157600080fd5b506105fc60048036038101906105f79190613432565b611971565b005b34801561060a57600080fd5b50610625600480360381019061062091906135bc565b6119d3565b6040516106329190613ef1565b60405180910390f35b34801561064757600080fd5b50610662600480360381019061065d919061339f565b611ce0565b60405161066f9190613ed6565b60405180910390f35b610692600480360381019061068d91906135bc565b611d74565b005b3480156106a057600080fd5b506106bb60048036038101906106b69190613372565b611f69565b005b60007f780e9d63000000000000000000000000000000000000000000000000000000007bffffffffffffffffffffffffffffffffffffffffffffffffffffffff1916827bffffffffffffffffffffffffffffffffffffffffffffffffffffffff19161480610730575061072f82612061565b5b9050919050565b60606000805461074690614494565b80601f016020809104026020016040519081016040528092919081815260200182805461077290614494565b80156107bf5780601f10610794576101008083540402835291602001916107bf565b820191906000526020600020905b8154815290600101906020018083116107a257829003601f168201915b5050505050905090565b60006107d482612143565b610813576040517f08c379a000000000000000000000000000000000000000000000000000000000815260040161080a906140b3565b60405180910390fd5b6004600083815260200190815260200160002060009054906101000a900473ffffffffffffffffffffffffffffffffffffffff169050919050565b60006108598261149f565b90508073ffffffffffffffffffffffffffffffffffffffff168373ffffffffffffffffffffffffffffffffffffffff1614156108ca576040517f08c379a00000000000000000000000000000000000000000000000000000000081526004016108c190614133565b60405180910390fd5b8073ffffffffffffffffffffffffffffffffffffffff166108e96121af565b73ffffffffffffffffffffffffffffffffffffffff1614806109185750610917816109126121af565b611ce0565b5b610957576040517f08c379a000000000000000000000000000000000000000000000000000000000815260040161094e90614013565b60405180910390fd5b61096183836121b7565b505050565b60606002600d5461097791906142bc565b82106109b8576040517f08c379a00000000000000000000000000000000000000000000000000000000081526004016109af90614073565b60405180910390fd5b60006109ea6109c684612270565b6040516020016109d69190613e2b565b6040516020818303038152906040526123d1565b90506000612710826109fc919061456a565b9050600061c35090506000806000610dac905083881015610a765760646103e78986610a28919061439d565b610a3291906142bc565b610a3c9190614312565b9250606461bf688986610a4f919061439d565b6004610a5b9190614343565b610a6591906142bc565b610a6f9190614312565b9150610a80565b600a92506101ea91505b808284610a8d91906142bc565b610a9791906142bc565b851115610b61576011808054905087610ab0919061456a565b81548110610ac157610ac0614657565b5b906000526020600020018054610ad690614494565b80601f0160208091040260200160405190810160405280929190818152602001828054610b0290614494565b8015610b4f5780601f10610b2457610100808354040283529160200191610b4f565b820191906000526020600020905b815481529060010190602001808311610b3257829003601f168201915b50505050509650505050505050610dc1565b8183610b6d91906142bc565b851115610c37576010808054905087610b86919061456a565b81548110610b9757610b96614657565b5b906000526020600020018054610bac90614494565b80601f0160208091040260200160405190810160405280929190818152602001828054610bd890614494565b8015610c255780601f10610bfa57610100808354040283529160200191610c25565b820191906000526020600020905b815481529060010190602001808311610c0857829003601f168201915b50505050509650505050505050610dc1565b82851115610d0257600f808054905087610c51919061456a565b81548110610c6257610c61614657565b5b906000526020600020018054610c7790614494565b80601f0160208091040260200160405190810160405280929190818152602001828054610ca390614494565b8015610cf05780601f10610cc557610100808354040283529160200191610cf0565b820191906000526020600020905b815481529060010190602001808311610cd357829003601f168201915b50505050509650505050505050610dc1565b600e808054905087610d14919061456a565b81548110610d2557610d24614657565b5b906000526020600020018054610d3a90614494565b80601f0160208091040260200160405190810160405280929190818152602001828054610d6690614494565b8015610db35780601f10610d8857610100808354040283529160200191610db3565b820191906000526020600020905b815481529060010190602001808311610d9657829003601f168201915b505050505096505050505050505b919050565b6000600880549050905090565b610ddb6121af565b73ffffffffffffffffffffffffffffffffffffffff16610df9611691565b73ffffffffffffffffffffffffffffffffffffffff1614610e4f576040517f08c379a0000000000000000000000000000000000000000000000000000000008152600401610e46906140d3565b60405180910390fd5b80600b60146101000a81548160ff02191690831515021790555050565b610e7d610e776121af565b82612404565b610ebc576040517f08c379a0000000000000000000000000000000000000000000000000000000008152600401610eb390614173565b60405180910390fd5b610ec78383836124e2565b505050565b6000610ed783611551565b8210610f18576040517f08c379a0000000000000000000000000000000000000000000000000000000008152600401610f0f90613f13565b60405180910390fd5b600660008473ffffffffffffffffffffffffffffffffffffffff1673ffffffffffffffffffffffffffffffffffffffff168152602001908152602001600020600083815260200190815260200160002054905092915050565b60606002600d54610f8291906142bc565b8210610fc3576040517f08c379a0000000000000000000000000000000000000000000000000000000008152600401610fba90614073565b60405180910390fd5b6000610ff5610fd184612270565b604051602001610fe19190613e4d565b6040516020818303038152906040526123d1565b905060006013805490508261100a919061456a565b9050601160148361101b919061456a565b111561113057600061105361102f86612270565b60405160200161103f9190613e09565b6040516020818303038152906040526123d1565b9050600060138054905082611068919061456a565b90508060ff168360ff1614156110c35760138360ff168154811061108f5761108e614657565b5b906000526020600020016040516020016110a99190613cc5565b6040516020818303038152906040529450505050506111df565b60138360ff16815481106110da576110d9614657565b5b9060005260206000200160138260ff16815481106110fb576110fa614657565b5b90600052602060002001604051602001611116929190613ce7565b6040516020818303038152906040529450505050506111df565b60138160ff168154811061114757611146614657565b5b90600052602060002001805461115c90614494565b80601f016020809104026020016040519081016040528092919081815260200182805461118890614494565b80156111d55780601f106111aa576101008083540402835291602001916111d5565b820191906000526020600020905b8154815290600101906020018083116111b857829003601f168201915b5050505050925050505b919050565b6111ff83838360405180602001604052806000815250611971565b505050565b600061120e610dc6565b821061124f576040517f08c379a000000000000000000000000000000000000000000000000000000000815260040161124690614193565b60405180910390fd5b6008828154811061126357611262614657565b5b90600052602060002001549050919050565b60606002600d5461128691906142bc565b82106112c7576040517f08c379a00000000000000000000000000000000000000000000000000000000081526004016112be90614073565b60405180910390fd5b60006112f96112d584612270565b6040516020016112e59190613dc5565b6040516020818303038152906040526123d1565b905060006012805490508261130e919061456a565b9050601160148361131f919061456a565b11156113eb57600061135761133386612270565b6040516020016113439190613da3565b6040516020818303038152906040526123d1565b905060006012805490508261136c919061456a565b90508060ff168360ff16146113e85760128360ff168154811061139257611391614657565b5b9060005260206000200160128260ff16815481106113b3576113b2614657565b5b906000526020600020016040516020016113ce929190613ce7565b60405160208183030381529060405294505050505061149a565b50505b60128160ff168154811061140257611401614657565b5b90600052602060002001805461141790614494565b80601f016020809104026020016040519081016040528092919081815260200182805461144390614494565b80156114905780601f1061146557610100808354040283529160200191611490565b820191906000526020600020905b81548152906001019060200180831161147357829003601f168201915b5050505050925050505b919050565b6000806002600084815260200190815260200160002060009054906101000a900473ffffffffffffffffffffffffffffffffffffffff169050600073ffffffffffffffffffffffffffffffffffffffff168173ffffffffffffffffffffffffffffffffffffffff161415611548576040517f08c379a000000000000000000000000000000000000000000000000000000000815260040161153f90614053565b60405180910390fd5b80915050919050565b60008073ffffffffffffffffffffffffffffffffffffffff168273ffffffffffffffffffffffffffffffffffffffff1614156115c2576040517f08c379a00000000000000000000000000000000000000000000000000000000081526004016115b990614033565b60405180910390fd5b600360008373ffffffffffffffffffffffffffffffffffffffff1673ffffffffffffffffffffffffffffffffffffffff168152602001908152602001600020549050919050565b6116116121af565b73ffffffffffffffffffffffffffffffffffffffff1661162f611691565b73ffffffffffffffffffffffffffffffffffffffff1614611685576040517f08c379a000000000000000000000000000000000000000000000000000000000815260040161167c906140d3565b60405180910390fd5b61168f600061273e565b565b6000600b60009054906101000a900473ffffffffffffffffffffffffffffffffffffffff16905090565b6116c36121af565b73ffffffffffffffffffffffffffffffffffffffff166116e1611691565b73ffffffffffffffffffffffffffffffffffffffff1614611737576040517f08c379a000000000000000000000000000000000000000000000000000000000815260040161172e906140d3565b60405180910390fd5b80600c8190555050565b60606001805461175090614494565b80601f016020809104026020016040519081016040528092919081815260200182805461177c90614494565b80156117c95780601f1061179e576101008083540402835291602001916117c9565b820191906000526020600020905b8154815290600101906020018083116117ac57829003601f168201915b5050505050905090565b6000600c54905090565b600b60149054906101000a900460ff1681565b6117f86121af565b73ffffffffffffffffffffffffffffffffffffffff168273ffffffffffffffffffffffffffffffffffffffff161415611866576040517f08c379a000000000000000000000000000000000000000000000000000000000815260040161185d90613fb3565b60405180910390fd5b80600560006118736121af565b73ffffffffffffffffffffffffffffffffffffffff1673ffffffffffffffffffffffffffffffffffffffff16815260200190815260200160002060008473ffffffffffffffffffffffffffffffffffffffff1673ffffffffffffffffffffffffffffffffffffffff16815260200190815260200160002060006101000a81548160ff0219169083151502179055508173ffffffffffffffffffffffffffffffffffffffff166119206121af565b73ffffffffffffffffffffffffffffffffffffffff167f17307eab39ab6107e8899845ad3d59bd9653f200f220920489ca2b5937696c31836040516119659190613ed6565b60405180910390a35050565b61198261197c6121af565b83612404565b6119c1576040517f08c379a00000000000000000000000000000000000000000000000000000000081526004016119b890614173565b60405180910390fd5b6119cd84848484612804565b50505050565b60606002600d546119e491906142bc565b8210611a25576040517f08c379a0000000000000000000000000000000000000000000000000000000008152600401611a1c90614073565b60405180910390fd5b6000611a3083610966565b90506000611a3d84611275565b90506000611a4a85610f71565b9050611a54613272565b60405180610120016040528060fd815260200161515160fd913981600060078110611a8257611a81614657565b5b60200201819052508381600160078110611a9f57611a9e614657565b5b602002018190525060405180606001604052806028815260200161528e6028913981600260078110611ad457611ad3614657565b5b60200201819052508281600360078110611af157611af0614657565b5b60200201819052506040518060600160405280602881526020016151296028913981600460078110611b2657611b25614657565b5b60200201819052508181600560078110611b4357611b42614657565b5b60200201819052506040518060400160405280600d81526020017f3c2f746578743e3c2f7376673e0000000000000000000000000000000000000081525081600660078110611b9557611b94614657565b5b6020020181905250600081600060078110611bb357611bb2614657565b5b602002015182600160078110611bcc57611bcb614657565b5b602002015183600260078110611be557611be4614657565b5b602002015184600360078110611bfe57611bfd614657565b5b602002015185600460078110611c1757611c16614657565b5b602002015186600560078110611c3057611c2f614657565b5b602002015187600660078110611c4957611c48614657565b5b6020020151604051602001611c649796959493929190613c60565b6040516020818303038152906040529050611cb5611c8188612270565b868686611c8d86612860565b604051602001611ca1959493929190613d16565b604051602081830303815290604052612860565b604051602001611cc59190613de7565b60405160208183030381529060405295505050505050919050565b6000600560008473ffffffffffffffffffffffffffffffffffffffff1673ffffffffffffffffffffffffffffffffffffffff16815260200190815260200160002060008373ffffffffffffffffffffffffffffffffffffffff1673ffffffffffffffffffffffffffffffffffffffff16815260200190815260200160002060009054906101000a900460ff16905092915050565b6002600a541415611dba576040517f08c379a0000000000000000000000000000000000000000000000000000000008152600401611db1906141d3565b60405180910390fd5b6002600a81905550600b60149054906101000a900460ff16611e11576040517f08c379a0000000000000000000000000000000000000000000000000000000008152600401611e08906141b3565b60405180910390fd5b60158110611e54576040517f08c379a0000000000000000000000000000000000000000000000000000000008152600401611e4b90613fd3565b60405180910390fd5b6001600a43611e639190614312565b611e6d91906142bc565b81600d54611e7b91906142bc565b10611ebb576040517f08c379a0000000000000000000000000000000000000000000000000000000008152600401611eb290614153565b60405180910390fd5b600181600c54611ecb9190614343565b611ed5919061439d565b3411611f16576040517f08c379a0000000000000000000000000000000000000000000000000000000008152600401611f0d906140f3565b60405180910390fd5b60005b818160ff161015611f5d576001600d6000828254611f3791906142bc565b92505081905550611f4a33600d546129f8565b8080611f5590614540565b915050611f19565b506001600a8190555050565b611f716121af565b73ffffffffffffffffffffffffffffffffffffffff16611f8f611691565b73ffffffffffffffffffffffffffffffffffffffff1614611fe5576040517f08c379a0000000000000000000000000000000000000000000000000000000008152600401611fdc906140d3565b60405180910390fd5b600073ffffffffffffffffffffffffffffffffffffffff168173ffffffffffffffffffffffffffffffffffffffff161415612055576040517f08c379a000000000000000000000000000000000000000000000000000000000815260040161204c90613f53565b60405180910390fd5b61205e8161273e565b50565b60007f80ac58cd000000000000000000000000000000000000000000000000000000007bffffffffffffffffffffffffffffffffffffffffffffffffffffffff1916827bffffffffffffffffffffffffffffffffffffffffffffffffffffffff1916148061212c57507f5b5e139f000000000000000000000000000000000000000000000000000000007bffffffffffffffffffffffffffffffffffffffffffffffffffffffff1916827bffffffffffffffffffffffffffffffffffffffffffffffffffffffff1916145b8061213c575061213b82612a16565b5b9050919050565b60008073ffffffffffffffffffffffffffffffffffffffff166002600084815260200190815260200160002060009054906101000a900473ffffffffffffffffffffffffffffffffffffffff1673ffffffffffffffffffffffffffffffffffffffff1614159050919050565b600033905090565b816004600083815260200190815260200160002060006101000a81548173ffffffffffffffffffffffffffffffffffffffff021916908373ffffffffffffffffffffffffffffffffffffffff160217905550808273ffffffffffffffffffffffffffffffffffffffff1661222a8361149f565b73ffffffffffffffffffffffffffffffffffffffff167f8c5be1e5ebec7d5bd14f71427d1e84f3dd0314c0f7b2291e5b200ac8c7c3b92560405160405180910390a45050565b606060008214156122b8576040518060400160405280600181526020017f300000000000000000000000000000000000000000000000000000000000000081525090506123cc565b600082905060005b600082146122ea5780806122d3906144f7565b915050600a826122e39190614312565b91506122c0565b60008167ffffffffffffffff81111561230657612305614686565b5b6040519080825280601f01601f1916602001820160405280156123385781602001600182028036833780820191505090505b5090505b600085146123c557600182612351919061439d565b9150600a85612360919061456a565b603061236c91906142bc565b60f81b81838151811061238257612381614657565b5b60200101907effffffffffffffffffffffffffffffffffffffffffffffffffffffffffffff1916908160001a905350600a856123be9190614312565b945061233c565b8093505050505b919050565b6000816040516020016123e49190613c49565b6040516020818303038152906040528051906020012060001c9050919050565b600061240f82612143565b61244e576040517f08c379a000000000000000000000000000000000000000000000000000000000815260040161244590613ff3565b60405180910390fd5b60006124598361149f565b90508073ffffffffffffffffffffffffffffffffffffffff168473ffffffffffffffffffffffffffffffffffffffff1614806124c857508373ffffffffffffffffffffffffffffffffffffffff166124b0846107c9565b73ffffffffffffffffffffffffffffffffffffffff16145b806124d957506124d88185611ce0565b5b91505092915050565b8273ffffffffffffffffffffffffffffffffffffffff166125028261149f565b73ffffffffffffffffffffffffffffffffffffffff1614612558576040517f08c379a000000000000000000000000000000000000000000000000000000000815260040161254f90614113565b60405180910390fd5b600073ffffffffffffffffffffffffffffffffffffffff168273ffffffffffffffffffffffffffffffffffffffff1614156125c8576040517f08c379a00000000000000000000000000000000000000000000000000000000081526004016125bf90613f93565b60405180910390fd5b6125d3838383612a80565b6125de6000826121b7565b6001600360008573ffffffffffffffffffffffffffffffffffffffff1673ffffffffffffffffffffffffffffffffffffffff168152602001908152602001600020600082825461262e919061439d565b925050819055506001600360008473ffffffffffffffffffffffffffffffffffffffff1673ffffffffffffffffffffffffffffffffffffffff168152602001908152602001600020600082825461268591906142bc565b92505081905550816002600083815260200190815260200160002060006101000a81548173ffffffffffffffffffffffffffffffffffffffff021916908373ffffffffffffffffffffffffffffffffffffffff160217905550808273ffffffffffffffffffffffffffffffffffffffff168473ffffffffffffffffffffffffffffffffffffffff167fddf252ad1be2c89b69c2b068fc378daa952ba7f163c4a11628f55a4df523b3ef60405160405180910390a4505050565b6000600b60009054906101000a900473ffffffffffffffffffffffffffffffffffffffff16905081600b60006101000a81548173ffffffffffffffffffffffffffffffffffffffff021916908373ffffffffffffffffffffffffffffffffffffffff1602179055508173ffffffffffffffffffffffffffffffffffffffff168173ffffffffffffffffffffffffffffffffffffffff167f8be0079c531659141344cd1fd0a4f28419497f9722a3daafe3b4186f6b6457e060405160405180910390a35050565b61280f8484846124e2565b61281b84848484612b94565b61285a576040517f08c379a000000000000000000000000000000000000000000000000000000000815260040161285190613f33565b60405180910390fd5b50505050565b6060600082519050600081141561288957604051806020016040528060008152509150506129f3565b6000600360028361289a91906142bc565b6128a49190614312565b60046128b09190614343565b905060006020826128c191906142bc565b67ffffffffffffffff8111156128da576128d9614686565b5b6040519080825280601f01601f19166020018201604052801561290c5781602001600182028036833780820191505090505b509050600060405180606001604052806040815260200161524e604091399050600181016020830160005b868110156129b05760038101905062ffffff818a015116603f8160121c168401518060081b905060ff603f83600c1c1686015116810190508060081b905060ff603f8360061c1686015116810190508060081b905060ff603f831686015116810190508060e01b90508084526004840193505050612937565b5060038606600181146129ca57600281146129da576129e5565b613d3d60f01b60028303526129e5565b603d60f81b60018303525b508484525050819450505050505b919050565b612a12828260405180602001604052806000815250612d2b565b5050565b60007f01ffc9a7000000000000000000000000000000000000000000000000000000007bffffffffffffffffffffffffffffffffffffffffffffffffffffffff1916827bffffffffffffffffffffffffffffffffffffffffffffffffffffffff1916149050919050565b612a8b838383612d86565b600073ffffffffffffffffffffffffffffffffffffffff168373ffffffffffffffffffffffffffffffffffffffff161415612ace57612ac981612d8b565b612b0d565b8173ffffffffffffffffffffffffffffffffffffffff168373ffffffffffffffffffffffffffffffffffffffff1614612b0c57612b0b8382612dd4565b5b5b600073ffffffffffffffffffffffffffffffffffffffff168273ffffffffffffffffffffffffffffffffffffffff161415612b5057612b4b81612f41565b612b8f565b8273ffffffffffffffffffffffffffffffffffffffff168273ffffffffffffffffffffffffffffffffffffffff1614612b8e57612b8d8282613012565b5b5b505050565b6000612bb58473ffffffffffffffffffffffffffffffffffffffff16613091565b15612d1e578373ffffffffffffffffffffffffffffffffffffffff1663150b7a02612bde6121af565b8786866040518563ffffffff1660e01b8152600401612c009493929190613e8a565b602060405180830381600087803b158015612c1a57600080fd5b505af1925050508015612c4b57506040513d601f19601f82011682018060405250810190612c48919061358f565b60015b612cce573d8060008114612c7b576040519150601f19603f3d011682016040523d82523d6000602084013e612c80565b606091505b50600081511415612cc6576040517f08c379a0000000000000000000000000000000000000000000000000000000008152600401612cbd90613f33565b60405180910390fd5b805181602001fd5b63150b7a0260e01b7bffffffffffffffffffffffffffffffffffffffffffffffffffffffff1916817bffffffffffffffffffffffffffffffffffffffffffffffffffffffff191614915050612d23565b600190505b949350505050565b612d3583836130a4565b612d426000848484612b94565b612d81576040517f08c379a0000000000000000000000000000000000000000000000000000000008152600401612d7890613f33565b60405180910390fd5b505050565b505050565b6008805490506009600083815260200190815260200160002081905550600881908060018154018082558091505060019003906000526020600020016000909190919091505550565b60006001612de184611551565b612deb919061439d565b9050600060076000848152602001908152602001600020549050818114612ed0576000600660008673ffffffffffffffffffffffffffffffffffffffff1673ffffffffffffffffffffffffffffffffffffffff168152602001908152602001600020600084815260200190815260200160002054905080600660008773ffffffffffffffffffffffffffffffffffffffff1673ffffffffffffffffffffffffffffffffffffffff168152602001908152602001600020600084815260200190815260200160002081905550816007600083815260200190815260200160002081905550505b6007600084815260200190815260200160002060009055600660008573ffffffffffffffffffffffffffffffffffffffff1673ffffffffffffffffffffffffffffffffffffffff16815260200190815260200160002060008381526020019081526020016000206000905550505050565b60006001600880549050612f55919061439d565b9050600060096000848152602001908152602001600020549050600060088381548110612f8557612f84614657565b5b906000526020600020015490508060088381548110612fa757612fa6614657565b5b906000526020600020018190555081600960008381526020019081526020016000208190555060096000858152602001908152602001600020600090556008805480612ff657612ff5614628565b5b6001900381819060005260206000200160009055905550505050565b600061301d83611551565b905081600660008573ffffffffffffffffffffffffffffffffffffffff1673ffffffffffffffffffffffffffffffffffffffff168152602001908152602001600020600083815260200190815260200160002081905550806007600084815260200190815260200160002081905550505050565b600080823b905060008111915050919050565b600073ffffffffffffffffffffffffffffffffffffffff168273ffffffffffffffffffffffffffffffffffffffff161415613114576040517f08c379a000000000000000000000000000000000000000000000000000000000815260040161310b90614093565b60405180910390fd5b61311d81612143565b1561315d576040517f08c379a000000000000000000000000000000000000000000000000000000000815260040161315490613f73565b60405180910390fd5b61316960008383612a80565b6001600360008473ffffffffffffffffffffffffffffffffffffffff1673ffffffffffffffffffffffffffffffffffffffff16815260200190815260200160002060008282546131b991906142bc565b92505081905550816002600083815260200190815260200160002060006101000a81548173ffffffffffffffffffffffffffffffffffffffff021916908373ffffffffffffffffffffffffffffffffffffffff160217905550808273ffffffffffffffffffffffffffffffffffffffff16600073ffffffffffffffffffffffffffffffffffffffff167fddf252ad1be2c89b69c2b068fc378daa952ba7f163c4a11628f55a4df523b3ef60405160405180910390a45050565b6040518060e001604052806007905b60608152602001906001900390816132815790505090565b60006132ac6132a784614233565b61420e565b9050828152602081018484840111156132c8576132c76146ba565b5b6132d3848285614452565b509392505050565b6000813590506132ea816150cc565b92915050565b6000813590506132ff816150e3565b92915050565b600081359050613314816150fa565b92915050565b600081519050613329816150fa565b92915050565b600082601f830112613344576133436146b5565b5b8135613354848260208601613299565b91505092915050565b60008135905061336c81615111565b92915050565b600060208284031215613388576133876146c4565b5b6000613396848285016132db565b91505092915050565b600080604083850312156133b6576133b56146c4565b5b60006133c4858286016132db565b92505060206133d5858286016132db565b9150509250929050565b6000806000606084860312156133f8576133f76146c4565b5b6000613406868287016132db565b9350506020613417868287016132db565b92505060406134288682870161335d565b9150509250925092565b6000806000806080858703121561344c5761344b6146c4565b5b600061345a878288016132db565b945050602061346b878288016132db565b935050604061347c8782880161335d565b925050606085013567ffffffffffffffff81111561349d5761349c6146bf565b5b6134a98782880161332f565b91505092959194509250565b600080604083850312156134cc576134cb6146c4565b5b60006134da858286016132db565b92505060206134eb858286016132f0565b9150509250929050565b6000806040838503121561350c5761350b6146c4565b5b600061351a858286016132db565b925050602061352b8582860161335d565b9150509250929050565b60006020828403121561354b5761354a6146c4565b5b6000613559848285016132f0565b91505092915050565b600060208284031215613578576135776146c4565b5b600061358684828501613305565b91505092915050565b6000602082840312156135a5576135a46146c4565b5b60006135b38482850161331a565b91505092915050565b6000602082840312156135d2576135d16146c4565b5b60006135e08482850161335d565b91505092915050565b6135f2816143d1565b82525050565b613601816143e3565b82525050565b600061361282614279565b61361c818561428f565b935061362c818560208601614461565b613635816146c9565b840191505092915050565b600061364b82614284565b61365581856142a0565b9350613665818560208601614461565b61366e816146c9565b840191505092915050565b600061368482614284565b61368e81856142b1565b935061369e818560208601614461565b80840191505092915050565b600081546136b781614494565b6136c181866142b1565b945060018216600081146136dc57600181146136ed57613720565b60ff19831686528186019350613720565b6136f685614264565b60005b83811015613718578154818901526001820191506020810190506136f9565b838801955050505b50505092915050565b6000613736602b836142a0565b9150613741826146da565b604082019050919050565b60006137596032836142a0565b915061376482614729565b604082019050919050565b600061377c6034836142b1565b915061378782614778565b603482019050919050565b600061379f6026836142a0565b91506137aa826147c7565b604082019050919050565b60006137c2601c836142a0565b91506137cd82614816565b602082019050919050565b60006137e56028836142b1565b91506137f08261483f565b602882019050919050565b60006138086003836142b1565b91506138138261488e565b600382019050919050565b600061382b6024836142a0565b9150613836826148b7565b604082019050919050565b600061384e6019836142a0565b915061385982614906565b602082019050919050565b60006138716015836142b1565b915061387c8261492f565b601582019050919050565b60006138946021836142a0565b915061389f82614958565b604082019050919050565b60006138b7602c836142a0565b91506138c2826149a7565b604082019050919050565b60006138da6038836142a0565b91506138e5826149f6565b604082019050919050565b60006138fd602a836142a0565b915061390882614a45565b604082019050919050565b60006139206029836142a0565b915061392b82614a94565b604082019050919050565b60006139436002836142b1565b915061394e82614ae3565b600282019050919050565b60006139666015836142a0565b915061397182614b0c565b602082019050919050565b6000613989600b836142b1565b915061399482614b35565b600b82019050919050565b60006139ac6020836142a0565b91506139b782614b5e565b602082019050919050565b60006139cf6005836142b1565b91506139da82614b87565b600582019050919050565b60006139f2602c836142a0565b91506139fd82614bb0565b604082019050919050565b6000613a156020836142a0565b9150613a2082614bff565b602082019050919050565b6000613a386012836142a0565b9150613a4382614c28565b602082019050919050565b6000613a5b6029836142a0565b9150613a6682614c51565b604082019050919050565b6000613a7e602a836142b1565b9150613a8982614ca0565b602a82019050919050565b6000613aa16021836142a0565b9150613aac82614cef565b604082019050919050565b6000613ac4601a836142a0565b9150613acf82614d3e565b602082019050919050565b6000613ae7601d836142b1565b9150613af282614d67565b601d82019050919050565b6000613b0a6031836142a0565b9150613b1582614d90565b604082019050919050565b6000613b2d600d836142b1565b9150613b3882614ddf565b600d82019050919050565b6000613b50602c836142a0565b9150613b5b82614e08565b604082019050919050565b6000613b736019836142a0565b9150613b7e82614e57565b602082019050919050565b6000613b966004836142b1565b9150613ba182614e80565b600482019050919050565b6000613bb96003836142b1565b9150613bc482614ea9565b600382019050919050565b6000613bdc601f836142a0565b9150613be782614ed2565b602082019050919050565b6000613bff6007836142b1565b9150613c0a82614efb565b600782019050919050565b6000613c23610147836142b1565b9150613c2e82614f24565b61014782019050919050565b613c438161443b565b82525050565b6000613c558284613679565b915081905092915050565b6000613c6c828a613679565b9150613c788289613679565b9150613c848288613679565b9150613c908287613679565b9150613c9c8286613679565b9150613ca88285613679565b9150613cb48284613679565b915081905098975050505050505050565b6000613cd182846136aa565b9150613cdc826137fb565b915081905092915050565b6000613cf382856136aa565b9150613cfe82613bac565b9150613d0a82846136aa565b91508190509392505050565b6000613d2182613864565b9150613d2d8288613679565b9150613d388261376f565b9150613d448287613679565b9150613d4f826137d8565b9150613d5b8286613679565b9150613d6682613a71565b9150613d728285613679565b9150613d7d82613c15565b9150613d898284613679565b9150613d9482613936565b91508190509695505050505050565b6000613dae8261397c565b9150613dba8284613679565b915081905092915050565b6000613dd0826139c2565b9150613ddc8284613679565b915081905092915050565b6000613df282613ada565b9150613dfe8284613679565b915081905092915050565b6000613e1482613b20565b9150613e208284613679565b915081905092915050565b6000613e3682613b89565b9150613e428284613679565b915081905092915050565b6000613e5882613bf2565b9150613e648284613679565b915081905092915050565b6000602082019050613e8460008301846135e9565b92915050565b6000608082019050613e9f60008301876135e9565b613eac60208301866135e9565b613eb96040830185613c3a565b8181036060830152613ecb8184613607565b905095945050505050565b6000602082019050613eeb60008301846135f8565b92915050565b60006020820190508181036000830152613f0b8184613640565b905092915050565b60006020820190508181036000830152613f2c81613729565b9050919050565b60006020820190508181036000830152613f4c8161374c565b9050919050565b60006020820190508181036000830152613f6c81613792565b9050919050565b60006020820190508181036000830152613f8c816137b5565b9050919050565b60006020820190508181036000830152613fac8161381e565b9050919050565b60006020820190508181036000830152613fcc81613841565b9050919050565b60006020820190508181036000830152613fec81613887565b9050919050565b6000602082019050818103600083015261400c816138aa565b9050919050565b6000602082019050818103600083015261402c816138cd565b9050919050565b6000602082019050818103600083015261404c816138f0565b9050919050565b6000602082019050818103600083015261406c81613913565b9050919050565b6000602082019050818103600083015261408c81613959565b9050919050565b600060208201905081810360008301526140ac8161399f565b9050919050565b600060208201905081810360008301526140cc816139e5565b9050919050565b600060208201905081810360008301526140ec81613a08565b9050919050565b6000602082019050818103600083015261410c81613a2b565b9050919050565b6000602082019050818103600083015261412c81613a4e565b9050919050565b6000602082019050818103600083015261414c81613a94565b9050919050565b6000602082019050818103600083015261416c81613ab7565b9050919050565b6000602082019050818103600083015261418c81613afd565b9050919050565b600060208201905081810360008301526141ac81613b43565b9050919050565b600060208201905081810360008301526141cc81613b66565b9050919050565b600060208201905081810360008301526141ec81613bcf565b9050919050565b60006020820190506142086000830184613c3a565b92915050565b6000614218614229565b905061422482826144c6565b919050565b6000604051905090565b600067ffffffffffffffff82111561424e5761424d614686565b5b614257826146c9565b9050602081019050919050565b60008190508160005260206000209050919050565b600081519050919050565b600081519050919050565b600082825260208201905092915050565b600082825260208201905092915050565b600081905092915050565b60006142c78261443b565b91506142d28361443b565b9250827fffffffffffffffffffffffffffffffffffffffffffffffffffffffffffffffff038211156143075761430661459b565b5b828201905092915050565b600061431d8261443b565b91506143288361443b565b925082614338576143376145ca565b5b828204905092915050565b600061434e8261443b565b91506143598361443b565b9250817fffffffffffffffffffffffffffffffffffffffffffffffffffffffffffffffff04831182151516156143925761439161459b565b5b828202905092915050565b60006143a88261443b565b91506143b38361443b565b9250828210156143c6576143c561459b565b5b828203905092915050565b60006143dc8261441b565b9050919050565b60008115159050919050565b60007fffffffff0000000000000000000000000000000000000000000000000000000082169050919050565b600073ffffffffffffffffffffffffffffffffffffffff82169050919050565b6000819050919050565b600060ff82169050919050565b82818337600083830152505050565b60005b8381101561447f578082015181840152602081019050614464565b8381111561448e576000848401525b50505050565b600060028204905060018216806144ac57607f821691505b602082108114156144c0576144bf6145f9565b5b50919050565b6144cf826146c9565b810181811067ffffffffffffffff821117156144ee576144ed614686565b5b80604052505050565b60006145028261443b565b91507fffffffffffffffffffffffffffffffffffffffffffffffffffffffffffffffff8214156145355761453461459b565b5b600182019050919050565b600061454b82614445565b915060ff82141561455f5761455e61459b565b5b600182019050919050565b60006145758261443b565b91506145808361443b565b9250826145905761458f6145ca565b5b828206905092915050565b7f4e487b7100000000000000000000000000000000000000000000000000000000600052601160045260246000fd5b7f4e487b7100000000000000000000000000000000000000000000000000000000600052601260045260246000fd5b7f4e487b7100000000000000000000000000000000000000000000000000000000600052602260045260246000fd5b7f4e487b7100000000000000000000000000000000000000000000000000000000600052603160045260246000fd5b7f4e487b7100000000000000000000000000000000000000000000000000000000600052603260045260246000fd5b7f4e487b7100000000000000000000000000000000000000000000000000000000600052604160045260246000fd5b600080fd5b600080fd5b600080fd5b600080fd5b6000601f19601f8301169050919050565b7f455243373231456e756d657261626c653a206f776e657220696e646578206f7560008201527f74206f6620626f756e6473000000000000000000000000000000000000000000602082015250565b7f4552433732313a207472616e7366657220746f206e6f6e20455243373231526560008201527f63656976657220696d706c656d656e7465720000000000000000000000000000602082015250565b7f222c202261747472696275746573223a205b7b202274726169745f747970652260008201527f3a202252616365222c202276616c7565223a2022000000000000000000000000602082015250565b7f4f776e61626c653a206e6577206f776e657220697320746865207a65726f206160008201527f6464726573730000000000000000000000000000000000000000000000000000602082015250565b7f4552433732313a20746f6b656e20616c7265616479206d696e74656400000000600082015250565b7f22207d2c207b202274726169745f74797065223a2022436c617373222c20227660008201527f616c7565223a2022000000000000000000000000000000000000000000000000602082015250565b7f2078320000000000000000000000000000000000000000000000000000000000600082015250565b7f4552433732313a207472616e7366657220746f20746865207a65726f2061646460008201527f7265737300000000000000000000000000000000000000000000000000000000602082015250565b7f4552433732313a20617070726f766520746f2063616c6c657200000000000000600082015250565b7f7b226e616d65223a202243686172616374657220230000000000000000000000600082015250565b7f4d6178206d696e74206f662032302043686172616374657273206174206f6e6360008201527f6500000000000000000000000000000000000000000000000000000000000000602082015250565b7f4552433732313a206f70657261746f7220717565727920666f72206e6f6e657860008201527f697374656e7420746f6b656e0000000000000000000000000000000000000000602082015250565b7f4552433732313a20617070726f76652063616c6c6572206973206e6f74206f7760008201527f6e6572206e6f7220617070726f76656420666f7220616c6c0000000000000000602082015250565b7f4552433732313a2062616c616e636520717565727920666f7220746865207a6560008201527f726f206164647265737300000000000000000000000000000000000000000000602082015250565b7f4552433732313a206f776e657220717565727920666f72206e6f6e657869737460008201527f656e7420746f6b656e0000000000000000000000000000000000000000000000602082015250565b7f227d000000000000000000000000000000000000000000000000000000000000600082015250565b7f596f752063616e2774206c6f6f6b206168656164210000000000000000000000600082015250565b7f5345434f4e44434c415353000000000000000000000000000000000000000000600082015250565b7f4552433732313a206d696e7420746f20746865207a65726f2061646472657373600082015250565b7f434c415353000000000000000000000000000000000000000000000000000000600082015250565b7f4552433732313a20617070726f76656420717565727920666f72206e6f6e657860008201527f697374656e7420746f6b656e0000000000000000000000000000000000000000602082015250565b7f4f776e61626c653a2063616c6c6572206973206e6f7420746865206f776e6572600082015250565b7f45746865722073656e74206973206c6f772e0000000000000000000000000000600082015250565b7f4552433732313a207472616e73666572206f6620746f6b656e2074686174206960008201527f73206e6f74206f776e0000000000000000000000000000000000000000000000602082015250565b7f22207d2c207b202274726169745f74797065223a2022456c656d656e74222c2060008201527f2276616c7565223a202200000000000000000000000000000000000000000000602082015250565b7f4552433732313a20617070726f76616c20746f2063757272656e74206f776e6560008201527f7200000000000000000000000000000000000000000000000000000000000000602082015250565b7f4e6f204368617261637465727320746f206d696e74206e6f772e000000000000600082015250565b7f646174613a6170706c69636174696f6e2f6a736f6e3b6261736536342c000000600082015250565b7f4552433732313a207472616e736665722063616c6c6572206973206e6f74206f60008201527f776e6572206e6f7220617070726f766564000000000000000000000000000000602082015250565b7f5345434f4e44454c454d454e5400000000000000000000000000000000000000600082015250565b7f455243373231456e756d657261626c653a20676c6f62616c20696e646578206f60008201527f7574206f6620626f756e64730000000000000000000000000000000000000000602082015250565b7f5075626c6963206d696e74696e67206973207061757365642e00000000000000600082015250565b7f5241434500000000000000000000000000000000000000000000000000000000600082015250565b7f202b200000000000000000000000000000000000000000000000000000000000600082015250565b7f5265656e7472616e637947756172643a207265656e7472616e742063616c6c00600082015250565b7f454c454d454e5400000000000000000000000000000000000000000000000000600082015250565b7f22207d5d2c20226465736372697074696f6e223a20224368617261637465722060008201527f697320612072616e646f6d697a656420525047206964656e746974792067656e60208201527f65726174656420616e642073746f726564206f6e20636861696e2e204964656e60408201527f7469747920697320636f6d706f736564206f6620726163652c20636c6173732c60608201527f20616e6420656c656d656e7420616666696e6974792e204d6178696d756d207360808201527f7570706c79206f6620436861726163746572732069732064796e616d69632c2060a08201527f696e6372656173696e6720617420312f313074682074686520626c6f636b207260c08201527f617465206f6620457468657265756d2e204665656c206672656520746f20757360e08201527f652043686172616374657220696e20616e792077617920796f752077616e742e6101008201527f222c2022696d616765223a2022646174613a696d6167652f7376672b786d6c3b6101208201527f6261736536342c0000000000000000000000000000000000000000000000000061014082015250565b6150d5816143d1565b81146150e057600080fd5b50565b6150ec816143e3565b81146150f757600080fd5b50565b615103816143ef565b811461510e57600080fd5b50565b61511a8161443b565b811461512557600080fd5b5056fe3c2f746578743e3c7465787420783d2231302220793d2236302220636c6173733d2262617365223e3c73766720786d6c6e733d22687474703a2f2f7777772e77332e6f72672f323030302f73766722207072657365727665417370656374526174696f3d22784d696e594d696e206d656574222076696577426f783d223020302033353020333530223e3c7374796c653e2e62617365207b2066696c6c3a2077686974653b20666f6e742d66616d696c793a2073657269663b20666f6e742d73697a653a20313470783b207d3c2f7374796c653e3c726563742077696474683d223130302522206865696768743d2231303025222066696c6c3d22626c61636b22202f3e3c7465787420783d2231302220793d2232302220636c6173733d2262617365223e4142434445464748494a4b4c4d4e4f505152535455565758595a6162636465666768696a6b6c6d6e6f707172737475767778797a303132333435363738392b2f3c2f746578743e3c7465787420783d2231302220793d2234302220636c6173733d2262617365223ea26469706673582212205b820c98a3a996d5407080c89f12f70319ee9c7b580252a64f512215effffb7164736f6c63430008060033",
  "linkReferences": {},
  "deployedLinkReferences": {}
}